{
  "_format": "hh-sol-artifact-1",
  "contractName": "Sufle",
  "sourceName": "contracts/Sufle.sol",
  "abi": [
    {
      "inputs": [],
      "stateMutability": "nonpayable",
      "type": "constructor"
    },
    {
      "anonymous": false,
      "inputs": [
        {
          "indexed": false,
          "internalType": "uint256",
          "name": "pathId",
          "type": "uint256"
        },
        {
          "indexed": false,
          "internalType": "string",
          "name": "title",
          "type": "string"
        },
        {
          "indexed": false,
          "internalType": "string",
          "name": "description",
          "type": "string"
        }
      ],
      "name": "GeneratedPath",
      "type": "event"
    },
    {
      "anonymous": false,
      "inputs": [
        {
          "indexed": false,
          "internalType": "uint256",
          "name": "pathId",
          "type": "uint256"
        },
        {
          "indexed": false,
          "internalType": "string",
          "name": "title",
          "type": "string"
        },
        {
          "indexed": false,
          "internalType": "string",
          "name": "description",
          "type": "string"
        }
      ],
      "name": "PathCreated",
      "type": "event"
    },
    {
      "anonymous": false,
      "inputs": [
        {
          "indexed": false,
          "internalType": "uint256",
          "name": "taskId",
          "type": "uint256"
        },
        {
          "indexed": false,
          "internalType": "string",
          "name": "title",
          "type": "string"
        },
        {
          "indexed": false,
          "internalType": "string",
          "name": "description",
          "type": "string"
        },
        {
          "indexed": false,
          "internalType": "string",
          "name": "priority",
          "type": "string"
        },
        {
          "indexed": false,
          "internalType": "string",
          "name": "status",
          "type": "string"
        },
        {
          "indexed": false,
          "internalType": "string",
          "name": "tags",
          "type": "string"
        }
      ],
      "name": "TaskCreated",
      "type": "event"
    },
    {
      "inputs": [
        {
          "internalType": "string",
          "name": "_title",
          "type": "string"
        },
        {
          "internalType": "string",
          "name": "_description",
          "type": "string"
        },
        {
          "internalType": "uint256[]",
          "name": "_taskIds",
          "type": "uint256[]"
        }
      ],
      "name": "createPath",
      "outputs": [],
      "stateMutability": "nonpayable",
      "type": "function"
    },
    {
      "inputs": [
        {
          "internalType": "string",
          "name": "_title",
          "type": "string"
        },
        {
          "internalType": "string",
          "name": "_description",
          "type": "string"
        },
        {
          "internalType": "string",
          "name": "_priority",
          "type": "string"
        },
        {
          "internalType": "string",
          "name": "_status",
          "type": "string"
        },
        {
          "internalType": "string",
          "name": "_tags",
          "type": "string"
        }
      ],
      "name": "createTask",
      "outputs": [],
      "stateMutability": "nonpayable",
      "type": "function"
    },
    {
      "inputs": [
        {
          "internalType": "uint256",
          "name": "_id",
          "type": "uint256"
        }
      ],
      "name": "generatePathWithAI",
      "outputs": [],
      "stateMutability": "payable",
      "type": "function"
    },
    {
      "inputs": [
        {
          "internalType": "uint256",
          "name": "_pathId",
          "type": "uint256"
        }
      ],
      "name": "getPathInfo",
      "outputs": [
        {
          "internalType": "uint256",
          "name": "",
          "type": "uint256"
        },
        {
          "internalType": "string",
          "name": "",
          "type": "string"
        },
        {
          "internalType": "string",
          "name": "",
          "type": "string"
        }
      ],
      "stateMutability": "view",
      "type": "function"
    },
    {
      "inputs": [
        {
          "internalType": "uint256",
          "name": "_pathId",
          "type": "uint256"
        },
        {
          "internalType": "uint256",
          "name": "_taskId",
          "type": "uint256"
        }
      ],
      "name": "getPathTask",
      "outputs": [
        {
          "internalType": "uint256",
          "name": "",
          "type": "uint256"
        },
        {
          "internalType": "string",
          "name": "",
          "type": "string"
        },
        {
          "internalType": "string",
          "name": "",
          "type": "string"
        },
        {
          "internalType": "string",
          "name": "",
          "type": "string"
        },
        {
          "internalType": "string",
          "name": "",
          "type": "string"
        },
        {
          "internalType": "string",
          "name": "",
          "type": "string"
        }
      ],
      "stateMutability": "view",
      "type": "function"
    },
    {
      "inputs": [
        {
          "internalType": "uint256",
          "name": "_taskId",
          "type": "uint256"
        }
      ],
      "name": "getTaskInfo",
      "outputs": [
        {
          "internalType": "uint256",
          "name": "",
          "type": "uint256"
        },
        {
          "internalType": "string",
          "name": "",
          "type": "string"
        },
        {
          "internalType": "string",
          "name": "",
          "type": "string"
        },
        {
          "internalType": "string",
          "name": "",
          "type": "string"
        },
        {
          "internalType": "string",
          "name": "",
          "type": "string"
        },
        {
          "internalType": "string",
          "name": "",
          "type": "string"
        }
      ],
      "stateMutability": "view",
      "type": "function"
    },
    {
      "inputs": [],
      "name": "owner",
      "outputs": [
        {
          "internalType": "address",
          "name": "",
          "type": "address"
        }
      ],
      "stateMutability": "view",
      "type": "function"
    },
    {
      "inputs": [
        {
          "internalType": "uint256",
          "name": "",
          "type": "uint256"
        }
      ],
      "name": "paths",
      "outputs": [
        {
          "internalType": "uint256",
          "name": "pathId",
          "type": "uint256"
        },
        {
          "internalType": "string",
          "name": "title",
          "type": "string"
        },
        {
          "internalType": "string",
          "name": "description",
          "type": "string"
        }
      ],
      "stateMutability": "view",
      "type": "function"
    },
    {
      "inputs": [
        {
          "internalType": "uint256",
          "name": "",
          "type": "uint256"
        }
      ],
      "name": "tasks",
      "outputs": [
        {
          "internalType": "uint256",
          "name": "taskId",
          "type": "uint256"
        },
        {
          "internalType": "string",
          "name": "title",
          "type": "string"
        },
        {
          "internalType": "string",
          "name": "description",
          "type": "string"
        },
        {
          "internalType": "string",
          "name": "priority",
          "type": "string"
        },
        {
          "internalType": "string",
          "name": "status",
          "type": "string"
        },
        {
          "internalType": "string",
          "name": "tags",
          "type": "string"
        }
      ],
      "stateMutability": "view",
      "type": "function"
    }
  ],
  "bytecode": "0x6080604052348015600f57600080fd5b50336000806101000a81548173ffffffffffffffffffffffffffffffffffffffff021916908373ffffffffffffffffffffffffffffffffffffffff1602179055506120538061005f6000396000f3fe6080604052600436106100865760003560e01c8063c11c519911610059578063c11c51991461014a578063c528af5c14610189578063d1a1b999146101cb578063e52954691461020d578063fc1bcd491461022957610086565b806314c02d841461008b5780638d977672146100b45780638da5cb5b146100f6578063b959119214610121575b600080fd5b34801561009757600080fd5b506100b260048036038101906100ad9190611481565b610268565b005b3480156100c057600080fd5b506100db60048036038101906100d691906115be565b61042c565b6040516100ed96959493929190611679565b60405180910390f35b34801561010257600080fd5b5061010b610710565b604051610118919061173e565b60405180910390f35b34801561012d57600080fd5b5061014860048036038101906101439190611821565b610734565b005b34801561015657600080fd5b50610171600480360381019061016c91906115be565b610966565b604051610180939291906118c8565b60405180910390f35b34801561019557600080fd5b506101b060048036038101906101ab919061190d565b610ab5565b6040516101c296959493929190611679565b60405180910390f35b3480156101d757600080fd5b506101f260048036038101906101ed91906115be565b610dd6565b60405161020496959493929190611679565b60405180910390f35b610227600480360381019061022291906115be565b6110e2565b005b34801561023557600080fd5b50610250600480360381019061024b91906115be565b6111ed565b60405161025f939291906118c8565b60405180910390f35b60008054906101000a900473ffffffffffffffffffffffffffffffffffffffff1673ffffffffffffffffffffffffffffffffffffffff163373ffffffffffffffffffffffffffffffffffffffff16146102f6576040517f08c379a00000000000000000000000000000000000000000000000000000000081526004016102ed906119bf565b60405180910390fd5b600085854260405160200161030d93929190611a3c565b6040516020818303038152906040528051906020012060001c90506040518060c0016040528082815260200187815260200186815260200185815260200184815260200183815250600160008381526020019081526020016000206000820151816000015560208201518160010190816103879190611c7d565b50604082015181600201908161039d9190611c7d565b5060608201518160030190816103b39190611c7d565b5060808201518160040190816103c99190611c7d565b5060a08201518160050190816103df9190611c7d565b509050507fdd80b44c858b1da56e0c7431f8556fce71b1ca755eeff5ab0649acca26c2304181878787878760405161041c96959493929190611679565b60405180910390a1505050505050565b600160205280600052604060002060009150905080600001549080600101805461045590611aa0565b80601f016020809104026020016040519081016040528092919081815260200182805461048190611aa0565b80156104ce5780601f106104a3576101008083540402835291602001916104ce565b820191906000526020600020905b8154815290600101906020018083116104b157829003601f168201915b5050505050908060020180546104e390611aa0565b80601f016020809104026020016040519081016040528092919081815260200182805461050f90611aa0565b801561055c5780601f106105315761010080835404028352916020019161055c565b820191906000526020600020905b81548152906001019060200180831161053f57829003601f168201915b50505050509080600301805461057190611aa0565b80601f016020809104026020016040519081016040528092919081815260200182805461059d90611aa0565b80156105ea5780601f106105bf576101008083540402835291602001916105ea565b820191906000526020600020905b8154815290600101906020018083116105cd57829003601f168201915b5050505050908060040180546105ff90611aa0565b80601f016020809104026020016040519081016040528092919081815260200182805461062b90611aa0565b80156106785780601f1061064d57610100808354040283529160200191610678565b820191906000526020600020905b81548152906001019060200180831161065b57829003601f168201915b50505050509080600501805461068d90611aa0565b80601f01602080910402602001604051908101604052809291908181526020018280546106b990611aa0565b80156107065780601f106106db57610100808354040283529160200191610706565b820191906000526020600020905b8154815290600101906020018083116106e957829003601f168201915b5050505050905086565b60008054906101000a900473ffffffffffffffffffffffffffffffffffffffff1681565b60008054906101000a900473ffffffffffffffffffffffffffffffffffffffff1673ffffffffffffffffffffffffffffffffffffffff163373ffffffffffffffffffffffffffffffffffffffff16146107c2576040517f08c379a00000000000000000000000000000000000000000000000000000000081526004016107b9906119bf565b60405180910390fd5b60008383426040516020016107d993929190611a3c565b6040516020818303038152906040528051906020012060001c90506000600260008381526020019081526020016000209050818160000181905550848160010190816108259190611c7d565b50838160020190816108379190611c7d565b5060005b8351811015610923576001600085838151811061085b5761085a611d4f565b5b6020026020010151815260200190815260200160002082600301600086848151811061088a57610889611d4f565b5b6020026020010151815260200190815260200160002060008201548160000155600182018160010190816108be9190611d94565b50600282018160020190816108d39190611d94565b50600382018160030190816108e89190611d94565b50600482018160040190816108fd9190611d94565b50600582018160050190816109129190611d94565b50905050808060010191505061083b565b507fb4c05240c9123bc1e0c4f8d3f24c7576a172360a19d1f98b4a97cd3758422631828686604051610957939291906118c8565b60405180910390a15050505050565b600060608060006002600086815260200190815260200160002090508060000154816001018260020181805461099b90611aa0565b80601f01602080910402602001604051908101604052809291908181526020018280546109c790611aa0565b8015610a145780601f106109e957610100808354040283529160200191610a14565b820191906000526020600020905b8154815290600101906020018083116109f757829003601f168201915b50505050509150808054610a2790611aa0565b80601f0160208091040260200160405190810160405280929190818152602001828054610a5390611aa0565b8015610aa05780601f10610a7557610100808354040283529160200191610aa0565b820191906000526020600020905b815481529060010190602001808311610a8357829003601f168201915b50505050509050935093509350509193909250565b600060608060608060606000600260008a81526020019081526020016000206003016000898152602001908152602001600020905080600001548160010182600201836003018460040185600501848054610b0f90611aa0565b80601f0160208091040260200160405190810160405280929190818152602001828054610b3b90611aa0565b8015610b885780601f10610b5d57610100808354040283529160200191610b88565b820191906000526020600020905b815481529060010190602001808311610b6b57829003601f168201915b50505050509450838054610b9b90611aa0565b80601f0160208091040260200160405190810160405280929190818152602001828054610bc790611aa0565b8015610c145780601f10610be957610100808354040283529160200191610c14565b820191906000526020600020905b815481529060010190602001808311610bf757829003601f168201915b50505050509350828054610c2790611aa0565b80601f0160208091040260200160405190810160405280929190818152602001828054610c5390611aa0565b8015610ca05780601f10610c7557610100808354040283529160200191610ca0565b820191906000526020600020905b815481529060010190602001808311610c8357829003601f168201915b50505050509250818054610cb390611aa0565b80601f0160208091040260200160405190810160405280929190818152602001828054610cdf90611aa0565b8015610d2c5780601f10610d0157610100808354040283529160200191610d2c565b820191906000526020600020905b815481529060010190602001808311610d0f57829003601f168201915b50505050509150808054610d3f90611aa0565b80601f0160208091040260200160405190810160405280929190818152602001828054610d6b90611aa0565b8015610db85780601f10610d8d57610100808354040283529160200191610db8565b820191906000526020600020905b815481529060010190602001808311610d9b57829003601f168201915b50505050509050965096509650965096509650509295509295509295565b60006060806060806060600060016000898152602001908152602001600020905080600001548160010182600201836003018460040185600501848054610e1c90611aa0565b80601f0160208091040260200160405190810160405280929190818152602001828054610e4890611aa0565b8015610e955780601f10610e6a57610100808354040283529160200191610e95565b820191906000526020600020905b815481529060010190602001808311610e7857829003601f168201915b50505050509450838054610ea890611aa0565b80601f0160208091040260200160405190810160405280929190818152602001828054610ed490611aa0565b8015610f215780601f10610ef657610100808354040283529160200191610f21565b820191906000526020600020905b815481529060010190602001808311610f0457829003601f168201915b50505050509350828054610f3490611aa0565b80601f0160208091040260200160405190810160405280929190818152602001828054610f6090611aa0565b8015610fad5780601f10610f8257610100808354040283529160200191610fad565b820191906000526020600020905b815481529060010190602001808311610f9057829003601f168201915b50505050509250818054610fc090611aa0565b80601f0160208091040260200160405190810160405280929190818152602001828054610fec90611aa0565b80156110395780601f1061100e57610100808354040283529160200191611039565b820191906000526020600020905b81548152906001019060200180831161101c57829003601f168201915b5050505050915080805461104c90611aa0565b80601f016020809104026020016040519081016040528092919081815260200182805461107890611aa0565b80156110c55780601f1061109a576101008083540402835291602001916110c5565b820191906000526020600020905b8154815290600101906020018083116110a857829003601f168201915b505050505090509650965096509650965096505091939550919395565b662386f26fc1000034101561112c576040517f08c379a000000000000000000000000000000000000000000000000000000000815260040161112390611ec8565b60405180910390fd5b6000600260008381526020019081526020016000206000015403611185576040517f08c379a000000000000000000000000000000000000000000000000000000000815260040161117c90611f34565b60405180910390fd5b7ffb33bc41b91b9a701b4d0981ddc8499a6afe3b03439ac8bb59fb01ee066b23858160026000848152602001908152602001600020600101600260008581526020019081526020016000206002016040516111e293929190611fd8565b60405180910390a150565b600260205280600052604060002060009150905080600001549080600101805461121690611aa0565b80601f016020809104026020016040519081016040528092919081815260200182805461124290611aa0565b801561128f5780601f106112645761010080835404028352916020019161128f565b820191906000526020600020905b81548152906001019060200180831161127257829003601f168201915b5050505050908060020180546112a490611aa0565b80601f01602080910402602001604051908101604052809291908181526020018280546112d090611aa0565b801561131d5780601f106112f25761010080835404028352916020019161131d565b820191906000526020600020905b81548152906001019060200180831161130057829003601f168201915b5050505050905083565b6000604051905090565b600080fd5b600080fd5b600080fd5b600080fd5b6000601f19601f8301169050919050565b7f4e487b7100000000000000000000000000000000000000000000000000000000600052604160045260246000fd5b61138e82611345565b810181811067ffffffffffffffff821117156113ad576113ac611356565b5b80604052505050565b60006113c0611327565b90506113cc8282611385565b919050565b600067ffffffffffffffff8211156113ec576113eb611356565b5b6113f582611345565b9050602081019050919050565b82818337600083830152505050565b600061142461141f846113d1565b6113b6565b9050828152602081018484840111156114405761143f611340565b5b61144b848285611402565b509392505050565b600082601f8301126114685761146761133b565b5b8135611478848260208601611411565b91505092915050565b600080600080600060a0868803121561149d5761149c611331565b5b600086013567ffffffffffffffff8111156114bb576114ba611336565b5b6114c788828901611453565b955050602086013567ffffffffffffffff8111156114e8576114e7611336565b5b6114f488828901611453565b945050604086013567ffffffffffffffff81111561151557611514611336565b5b61152188828901611453565b935050606086013567ffffffffffffffff81111561154257611541611336565b5b61154e88828901611453565b925050608086013567ffffffffffffffff81111561156f5761156e611336565b5b61157b88828901611453565b9150509295509295909350565b6000819050919050565b61159b81611588565b81146115a657600080fd5b50565b6000813590506115b881611592565b92915050565b6000602082840312156115d4576115d3611331565b5b60006115e2848285016115a9565b91505092915050565b6115f481611588565b82525050565b600081519050919050565b600082825260208201905092915050565b60005b83811015611634578082015181840152602081019050611619565b60008484015250505050565b600061164b826115fa565b6116558185611605565b9350611665818560208601611616565b61166e81611345565b840191505092915050565b600060c08201905061168e60008301896115eb565b81810360208301526116a08188611640565b905081810360408301526116b48187611640565b905081810360608301526116c88186611640565b905081810360808301526116dc8185611640565b905081810360a08301526116f08184611640565b9050979650505050505050565b600073ffffffffffffffffffffffffffffffffffffffff82169050919050565b6000611728826116fd565b9050919050565b6117388161171d565b82525050565b6000602082019050611753600083018461172f565b92915050565b600067ffffffffffffffff82111561177457611773611356565b5b602082029050602081019050919050565b600080fd5b600061179d61179884611759565b6113b6565b905080838252602082019050602084028301858111156117c0576117bf611785565b5b835b818110156117e957806117d588826115a9565b8452602084019350506020810190506117c2565b5050509392505050565b600082601f8301126118085761180761133b565b5b813561181884826020860161178a565b91505092915050565b60008060006060848603121561183a57611839611331565b5b600084013567ffffffffffffffff81111561185857611857611336565b5b61186486828701611453565b935050602084013567ffffffffffffffff81111561188557611884611336565b5b61189186828701611453565b925050604084013567ffffffffffffffff8111156118b2576118b1611336565b5b6118be868287016117f3565b9150509250925092565b60006060820190506118dd60008301866115eb565b81810360208301526118ef8185611640565b905081810360408301526119038184611640565b9050949350505050565b6000806040838503121561192457611923611331565b5b6000611932858286016115a9565b9250506020611943858286016115a9565b9150509250929050565b7f4f6e6c7920746865206f776e65722063616e2063616c6c20746869732066756e60008201527f6374696f6e000000000000000000000000000000000000000000000000000000602082015250565b60006119a9602583611605565b91506119b48261194d565b604082019050919050565b600060208201905081810360008301526119d88161199c565b9050919050565b600081905092915050565b60006119f5826115fa565b6119ff81856119df565b9350611a0f818560208601611616565b80840191505092915050565b6000819050919050565b611a36611a3182611588565b611a1b565b82525050565b6000611a4882866119ea565b9150611a5482856119ea565b9150611a608284611a25565b602082019150819050949350505050565b7f4e487b7100000000000000000000000000000000000000000000000000000000600052602260045260246000fd5b60006002820490506001821680611ab857607f821691505b602082108103611acb57611aca611a71565b5b50919050565b60008190508160005260206000209050919050565b60006020601f8301049050919050565b600082821b905092915050565b600060088302611b337fffffffffffffffffffffffffffffffffffffffffffffffffffffffffffffffff82611af6565b611b3d8683611af6565b95508019841693508086168417925050509392505050565b6000819050919050565b6000611b7a611b75611b7084611588565b611b55565b611588565b9050919050565b6000819050919050565b611b9483611b5f565b611ba8611ba082611b81565b848454611b03565b825550505050565b600090565b611bbd611bb0565b611bc8818484611b8b565b505050565b5b81811015611bec57611be1600082611bb5565b600181019050611bce565b5050565b601f821115611c3157611c0281611ad1565b611c0b84611ae6565b81016020851015611c1a578190505b611c2e611c2685611ae6565b830182611bcd565b50505b505050565b600082821c905092915050565b6000611c5460001984600802611c36565b1980831691505092915050565b6000611c6d8383611c43565b9150826002028217905092915050565b611c86826115fa565b67ffffffffffffffff811115611c9f57611c9e611356565b5b611ca98254611aa0565b611cb4828285611bf0565b600060209050601f831160018114611ce75760008415611cd5578287015190505b611cdf8582611c61565b865550611d47565b601f198416611cf586611ad1565b60005b82811015611d1d57848901518255600182019150602085019450602081019050611cf8565b86831015611d3a5784890151611d36601f891682611c43565b8355505b6001600288020188555050505b505050505050565b7f4e487b7100000000000000000000000000000000000000000000000000000000600052603260045260246000fd5b600081549050611d8d81611aa0565b9050919050565b818103611da2575050611e7a565b611dab82611d7e565b67ffffffffffffffff811115611dc457611dc3611356565b5b611dce8254611aa0565b611dd9828285611bf0565b6000601f831160018114611e085760008415611df6578287015490505b611e008582611c61565b865550611e73565b601f198416611e1687611ad1565b9650611e2186611ad1565b60005b82811015611e4957848901548255600182019150600185019450602081019050611e24565b86831015611e665784890154611e62601f891682611c43565b8355505b6001600288020188555050505b5050505050505b565b7f596f75206d75737420706179206174206c6561737420302e3031206574686572600082015250565b6000611eb2602083611605565b9150611ebd82611e7c565b602082019050919050565b60006020820190508181036000830152611ee181611ea5565b9050919050565b7f5061746820646f6573206e6f7420657869737400000000000000000000000000600082015250565b6000611f1e601383611605565b9150611f2982611ee8565b602082019050919050565b60006020820190508181036000830152611f4d81611f11565b9050919050565b60008154611f6181611aa0565b611f6b8186611605565b94506001821660008114611f865760018114611f9c57611fcf565b60ff198316865281151560200286019350611fcf565b611fa585611ad1565b60005b83811015611fc757815481890152600182019150602081019050611fa8565b808801955050505b50505092915050565b6000606082019050611fed60008301866115eb565b8181036020830152611fff8185611f54565b905081810360408301526120138184611f54565b905094935050505056fea2646970667358221220354644b19c74545d8e0c67386de252b9b7baf3a48acf591185e94268e7cf93bf64736f6c634300081c0033",
  "linkReferences": {},
  "deployedLinkReferences": {}
}