{
  "_format": "hh-sol-artifact-1",
  "contractName": "Sufle",
  "sourceName": "contracts/Sufle.sol",
  "abi": [
    {
      "inputs": [],
      "stateMutability": "nonpayable",
      "type": "constructor"
    },
    {
      "anonymous": false,
      "inputs": [
        {
          "indexed": false,
          "internalType": "uint256",
          "name": "pathId",
          "type": "uint256"
        },
        {
          "indexed": true,
          "internalType": "address",
          "name": "creator",
          "type": "address"
        },
        {
          "indexed": false,
          "internalType": "string",
          "name": "description",
          "type": "string"
        }
      ],
      "name": "AIPathGenerated",
      "type": "event"
    },
    {
      "anonymous": false,
      "inputs": [
        {
          "indexed": false,
          "internalType": "uint256",
          "name": "pathId",
          "type": "uint256"
        },
        {
          "indexed": false,
          "internalType": "string",
          "name": "title",
          "type": "string"
        },
        {
          "indexed": false,
          "internalType": "string",
          "name": "description",
          "type": "string"
        }
      ],
      "name": "GeneratedPath",
      "type": "event"
    },
    {
      "anonymous": false,
      "inputs": [
        {
          "indexed": false,
          "internalType": "uint256",
          "name": "pathId",
          "type": "uint256"
        },
        {
          "indexed": false,
          "internalType": "string",
          "name": "title",
          "type": "string"
        },
        {
          "indexed": false,
          "internalType": "string",
          "name": "description",
          "type": "string"
        }
      ],
      "name": "PathCreated",
      "type": "event"
    },
    {
      "anonymous": false,
      "inputs": [
        {
          "indexed": false,
          "internalType": "uint256",
          "name": "surveyId",
          "type": "uint256"
        },
        {
          "indexed": true,
          "internalType": "address",
          "name": "userAddress",
          "type": "address"
        }
      ],
      "name": "SurveyCreated",
      "type": "event"
    },
    {
      "anonymous": false,
      "inputs": [
        {
          "indexed": false,
          "internalType": "uint256",
          "name": "surveyId",
          "type": "uint256"
        },
        {
          "indexed": true,
          "internalType": "address",
          "name": "userAddress",
          "type": "address"
        }
      ],
      "name": "SurveyUpdated",
      "type": "event"
    },
    {
      "anonymous": false,
      "inputs": [
        {
          "indexed": false,
          "internalType": "uint256",
          "name": "taskId",
          "type": "uint256"
        },
        {
          "indexed": false,
          "internalType": "string",
          "name": "title",
          "type": "string"
        },
        {
          "indexed": false,
          "internalType": "string",
          "name": "description",
          "type": "string"
        },
        {
          "indexed": false,
          "internalType": "string",
          "name": "priority",
          "type": "string"
        },
        {
          "indexed": false,
          "internalType": "string",
          "name": "status",
          "type": "string"
        },
        {
          "indexed": false,
          "internalType": "string",
          "name": "tags",
          "type": "string"
        }
      ],
      "name": "TaskCreated",
      "type": "event"
    },
    {
      "inputs": [],
      "name": "PATH_GENERATION_COST",
      "outputs": [
        {
          "internalType": "uint256",
          "name": "",
          "type": "uint256"
        }
      ],
      "stateMutability": "view",
      "type": "function"
    },
    {
      "inputs": [
        {
          "internalType": "string",
          "name": "_title",
          "type": "string"
        },
        {
          "internalType": "string",
          "name": "_description",
          "type": "string"
        },
        {
          "internalType": "uint256[]",
          "name": "_taskIds",
          "type": "uint256[]"
        }
      ],
      "name": "createPath",
      "outputs": [],
      "stateMutability": "nonpayable",
      "type": "function"
    },
    {
      "inputs": [
        {
          "internalType": "address",
          "name": "_userAddress",
          "type": "address"
        },
        {
          "internalType": "string",
          "name": "_occupation",
          "type": "string"
        },
        {
          "internalType": "string[]",
          "name": "_interestedCategories",
          "type": "string[]"
        },
        {
          "internalType": "string[]",
          "name": "_motivations",
          "type": "string[]"
        },
        {
          "internalType": "string",
          "name": "_lifeGoals",
          "type": "string"
        }
      ],
      "name": "createSurveyForUser",
      "outputs": [],
      "stateMutability": "nonpayable",
      "type": "function"
    },
    {
      "inputs": [
        {
          "internalType": "string",
          "name": "_title",
          "type": "string"
        },
        {
          "internalType": "string",
          "name": "_description",
          "type": "string"
        },
        {
          "internalType": "string",
          "name": "_priority",
          "type": "string"
        },
        {
          "internalType": "string",
          "name": "_status",
          "type": "string"
        },
        {
          "internalType": "string",
          "name": "_tags",
          "type": "string"
        }
      ],
      "name": "createTask",
      "outputs": [],
      "stateMutability": "nonpayable",
      "type": "function"
    },
    {
      "inputs": [
        {
          "internalType": "string",
          "name": "_occupation",
          "type": "string"
        },
        {
          "internalType": "string[]",
          "name": "_interestedCategories",
          "type": "string[]"
        },
        {
          "internalType": "string[]",
          "name": "_motivations",
          "type": "string[]"
        },
        {
          "internalType": "string",
          "name": "_lifeGoals",
          "type": "string"
        }
      ],
      "name": "createUserSurvey",
      "outputs": [],
      "stateMutability": "nonpayable",
      "type": "function"
    },
    {
      "inputs": [
        {
          "internalType": "uint256",
          "name": "_id",
          "type": "uint256"
        }
      ],
      "name": "generatePathWithAI",
      "outputs": [],
      "stateMutability": "payable",
      "type": "function"
    },
    {
      "inputs": [
        {
          "internalType": "string",
          "name": "_description",
          "type": "string"
        }
      ],
      "name": "generatePathWithDescription",
      "outputs": [
        {
          "internalType": "uint256",
          "name": "",
          "type": "uint256"
        }
      ],
      "stateMutability": "payable",
      "type": "function"
    },
    {
      "inputs": [
        {
          "internalType": "uint256",
          "name": "",
          "type": "uint256"
        }
      ],
      "name": "generatedAIPaths",
      "outputs": [
        {
          "internalType": "uint256",
          "name": "pathId",
          "type": "uint256"
        },
        {
          "internalType": "address",
          "name": "creator",
          "type": "address"
        },
        {
          "internalType": "string",
          "name": "description",
          "type": "string"
        },
        {
          "internalType": "string",
          "name": "title",
          "type": "string"
        },
        {
          "internalType": "uint256",
          "name": "timestamp",
          "type": "uint256"
        }
      ],
      "stateMutability": "view",
      "type": "function"
    },
    {
      "inputs": [],
      "name": "getCurrentUserSurveyCount",
      "outputs": [
        {
          "internalType": "uint256",
          "name": "",
          "type": "uint256"
        }
      ],
      "stateMutability": "view",
      "type": "function"
    },
    {
      "inputs": [
        {
          "internalType": "uint256",
          "name": "_pathId",
          "type": "uint256"
        }
      ],
      "name": "getGeneratedPathInfo",
      "outputs": [
        {
          "internalType": "uint256",
          "name": "pathId",
          "type": "uint256"
        },
        {
          "internalType": "address",
          "name": "creator",
          "type": "address"
        },
        {
          "internalType": "string",
          "name": "description",
          "type": "string"
        },
        {
          "internalType": "string",
          "name": "title",
          "type": "string"
        },
        {
          "internalType": "uint256",
          "name": "timestamp",
          "type": "uint256"
        }
      ],
      "stateMutability": "view",
      "type": "function"
    },
    {
      "inputs": [
        {
          "internalType": "uint256",
          "name": "_pathId",
          "type": "uint256"
        }
      ],
      "name": "getPathInfo",
      "outputs": [
        {
          "internalType": "uint256",
          "name": "",
          "type": "uint256"
        },
        {
          "internalType": "string",
          "name": "",
          "type": "string"
        },
        {
          "internalType": "string",
          "name": "",
          "type": "string"
        }
      ],
      "stateMutability": "view",
      "type": "function"
    },
    {
      "inputs": [
        {
          "internalType": "uint256",
          "name": "_pathId",
          "type": "uint256"
        },
        {
          "internalType": "uint256",
          "name": "_taskId",
          "type": "uint256"
        }
      ],
      "name": "getPathTask",
      "outputs": [
        {
          "internalType": "uint256",
          "name": "",
          "type": "uint256"
        },
        {
          "internalType": "string",
          "name": "",
          "type": "string"
        },
        {
          "internalType": "string",
          "name": "",
          "type": "string"
        },
        {
          "internalType": "string",
          "name": "",
          "type": "string"
        },
        {
          "internalType": "string",
          "name": "",
          "type": "string"
        },
        {
          "internalType": "string",
          "name": "",
          "type": "string"
        }
      ],
      "stateMutability": "view",
      "type": "function"
    },
    {
      "inputs": [
        {
          "internalType": "uint256",
          "name": "_surveyId",
          "type": "uint256"
        }
      ],
      "name": "getSurveyInfo",
      "outputs": [
        {
          "internalType": "uint256",
          "name": "",
          "type": "uint256"
        },
        {
          "internalType": "address",
          "name": "",
          "type": "address"
        },
        {
          "internalType": "string[]",
          "name": "",
          "type": "string[]"
        },
        {
          "internalType": "string[]",
          "name": "",
          "type": "string[]"
        },
        {
          "internalType": "string",
          "name": "",
          "type": "string"
        },
        {
          "internalType": "string",
          "name": "",
          "type": "string"
        },
        {
          "internalType": "uint256",
          "name": "",
          "type": "uint256"
        }
      ],
      "stateMutability": "view",
      "type": "function"
    },
    {
      "inputs": [
        {
          "internalType": "uint256",
          "name": "_taskId",
          "type": "uint256"
        }
      ],
      "name": "getTaskInfo",
      "outputs": [
        {
          "internalType": "uint256",
          "name": "",
          "type": "uint256"
        },
        {
          "internalType": "string",
          "name": "",
          "type": "string"
        },
        {
          "internalType": "string",
          "name": "",
          "type": "string"
        },
        {
          "internalType": "string",
          "name": "",
          "type": "string"
        },
        {
          "internalType": "string",
          "name": "",
          "type": "string"
        },
        {
          "internalType": "string",
          "name": "",
          "type": "string"
        }
      ],
      "stateMutability": "view",
      "type": "function"
    },
    {
      "inputs": [
        {
          "internalType": "address",
          "name": "_user",
          "type": "address"
        }
      ],
      "name": "getUserGeneratedPaths",
      "outputs": [
        {
          "internalType": "uint256[]",
          "name": "",
          "type": "uint256[]"
        }
      ],
      "stateMutability": "view",
      "type": "function"
    },
    {
      "inputs": [
        {
          "internalType": "address",
          "name": "_userAddress",
          "type": "address"
        }
      ],
      "name": "getUserSurveyCount",
      "outputs": [
        {
          "internalType": "uint256",
          "name": "",
          "type": "uint256"
        }
      ],
      "stateMutability": "view",
      "type": "function"
    },
    {
      "inputs": [
        {
          "internalType": "address",
          "name": "_userAddress",
          "type": "address"
        }
      ],
      "name": "getUserSurveyIds",
      "outputs": [
        {
          "internalType": "uint256[]",
          "name": "",
          "type": "uint256[]"
        }
      ],
      "stateMutability": "view",
      "type": "function"
    },
    {
      "inputs": [],
      "name": "owner",
      "outputs": [
        {
          "internalType": "address",
          "name": "",
          "type": "address"
        }
      ],
      "stateMutability": "view",
      "type": "function"
    },
    {
      "inputs": [
        {
          "internalType": "uint256",
          "name": "",
          "type": "uint256"
        }
      ],
      "name": "paths",
      "outputs": [
        {
          "internalType": "uint256",
          "name": "pathId",
          "type": "uint256"
        },
        {
          "internalType": "string",
          "name": "title",
          "type": "string"
        },
        {
          "internalType": "string",
          "name": "description",
          "type": "string"
        }
      ],
      "stateMutability": "view",
      "type": "function"
    },
    {
      "inputs": [
        {
          "internalType": "uint256",
          "name": "",
          "type": "uint256"
        }
      ],
      "name": "surveys",
      "outputs": [
        {
          "internalType": "uint256",
          "name": "surveyId",
          "type": "uint256"
        },
        {
          "internalType": "address",
          "name": "userAddress",
          "type": "address"
        },
        {
          "internalType": "string",
          "name": "occupation",
          "type": "string"
        },
        {
          "internalType": "string",
          "name": "lifeGoals",
          "type": "string"
        },
        {
          "internalType": "uint256",
          "name": "createdAt",
          "type": "uint256"
        }
      ],
      "stateMutability": "view",
      "type": "function"
    },
    {
      "inputs": [
        {
          "internalType": "uint256",
          "name": "",
          "type": "uint256"
        }
      ],
      "name": "tasks",
      "outputs": [
        {
          "internalType": "uint256",
          "name": "taskId",
          "type": "uint256"
        },
        {
          "internalType": "string",
          "name": "title",
          "type": "string"
        },
        {
          "internalType": "string",
          "name": "description",
          "type": "string"
        },
        {
          "internalType": "string",
          "name": "priority",
          "type": "string"
        },
        {
          "internalType": "string",
          "name": "status",
          "type": "string"
        },
        {
          "internalType": "string",
          "name": "tags",
          "type": "string"
        }
      ],
      "stateMutability": "view",
      "type": "function"
    },
    {
      "inputs": [
        {
          "internalType": "uint256",
          "name": "_pathId",
          "type": "uint256"
        },
        {
          "internalType": "string",
          "name": "_title",
          "type": "string"
        }
      ],
      "name": "updateGeneratedPathTitle",
      "outputs": [],
      "stateMutability": "nonpayable",
      "type": "function"
    },
    {
      "inputs": [
        {
          "internalType": "uint256",
          "name": "_surveyId",
          "type": "uint256"
        },
        {
          "internalType": "string",
          "name": "_occupation",
          "type": "string"
        },
        {
          "internalType": "string[]",
          "name": "_interestedCategories",
          "type": "string[]"
        },
        {
          "internalType": "string[]",
          "name": "_motivations",
          "type": "string[]"
        },
        {
          "internalType": "string",
          "name": "_lifeGoals",
          "type": "string"
        }
      ],
      "name": "updateSurvey",
      "outputs": [],
      "stateMutability": "nonpayable",
      "type": "function"
    },
    {
      "inputs": [
        {
          "internalType": "uint256",
          "name": "_surveyId",
          "type": "uint256"
        },
        {
          "internalType": "string",
          "name": "_occupation",
          "type": "string"
        },
        {
          "internalType": "string[]",
          "name": "_interestedCategories",
          "type": "string[]"
        },
        {
          "internalType": "string[]",
          "name": "_motivations",
          "type": "string[]"
        },
        {
          "internalType": "string",
          "name": "_lifeGoals",
          "type": "string"
        }
      ],
      "name": "updateUserSurvey",
      "outputs": [],
      "stateMutability": "nonpayable",
      "type": "function"
    },
    {
      "inputs": [
        {
          "internalType": "address",
          "name": "",
          "type": "address"
        },
        {
          "internalType": "uint256",
          "name": "",
          "type": "uint256"
        }
      ],
      "name": "userGeneratedPaths",
      "outputs": [
        {
          "internalType": "uint256",
          "name": "",
          "type": "uint256"
        }
      ],
      "stateMutability": "view",
      "type": "function"
    },
    {
      "inputs": [
        {
          "internalType": "address",
          "name": "",
          "type": "address"
        },
        {
          "internalType": "uint256",
          "name": "",
          "type": "uint256"
        }
      ],
      "name": "userSurveys",
      "outputs": [
        {
          "internalType": "uint256",
          "name": "",
          "type": "uint256"
        }
      ],
      "stateMutability": "view",
      "type": "function"
    },
    {
      "inputs": [],
      "name": "withdraw",
      "outputs": [],
      "stateMutability": "nonpayable",
      "type": "function"
    }
  ],
  "bytecode": "0x6080604052348015600f57600080fd5b50336000806101000a81548173ffffffffffffffffffffffffffffffffffffffff021916908373ffffffffffffffffffffffffffffffffffffffff1602179055506145d78061005f6000396000f3fe60806040526004361061019c5760003560e01c80638d977672116100ec578063c11c51991161008a578063da4d483811610064578063da4d48381461065c578063e529546914610699578063f7b53988146106b5578063fc1bcd49146106e05761019c565b8063c11c519914610599578063c528af5c146105d8578063d1a1b9991461061a5761019c565b8063a3b5c3ad116100c6578063a3b5c3ad146104c9578063abf1fe7314610506578063ac57d6031461052f578063b9591192146105705761019c565b80638d977672146104335780638da5cb5b14610475578063a36d0874146104a05761019c565b8063367e13e91161015957806368070eaa1161013357806368070eaa1461033b5780636848e91f14610378578063790e461c146103b557806386e68b90146103f25761019c565b8063367e13e9146102cb5780633cbe7dc4146102fb5780633ccfd60b146103245761019c565b80630d5a659b146101a15780630f482aa2146101ca57806314c02d84146101f3578063202c7ed21461021c5780632e8f34131461025d5780633169757a146102a0575b600080fd5b3480156101ad57600080fd5b506101c860048036038101906101c391906130b1565b61071f565b005b3480156101d657600080fd5b506101f160048036038101906101ec91906131d2565b61095c565b005b3480156101ff57600080fd5b5061021a600480360381019061021591906132bd565b610b1c565b005b34801561022857600080fd5b50610243600480360381019061023e91906133c4565b610ce0565b60405161025495949392919061348e565b60405180910390f35b34801561026957600080fd5b50610284600480360381019061027f91906133c4565b610e61565b60405161029797969594939291906135fb565b60405180910390f35b3480156102ac57600080fd5b506102b5611199565b6040516102c29190613686565b60405180910390f35b6102e560048036038101906102e091906136a1565b6111a4565b6040516102f29190613686565b60405180910390f35b34801561030757600080fd5b50610322600480360381019061031d91906131d2565b6113ca565b005b34801561033057600080fd5b50610339611598565b005b34801561034757600080fd5b50610362600480360381019061035d91906136ea565b61168f565b60405161036f9190613686565b60405180910390f35b34801561038457600080fd5b5061039f600480360381019061039a919061372a565b6116c0565b6040516103ac9190613686565b60405180910390f35b3480156103c157600080fd5b506103dc60048036038101906103d7919061372a565b61170c565b6040516103e99190613815565b60405180910390f35b3480156103fe57600080fd5b50610419600480360381019061041491906133c4565b6117a3565b60405161042a95949392919061348e565b60405180910390f35b34801561043f57600080fd5b5061045a600480360381019061045591906133c4565b611909565b60405161046c96959493929190613837565b60405180910390f35b34801561048157600080fd5b5061048a611bed565b60405161049791906138bb565b60405180910390f35b3480156104ac57600080fd5b506104c760048036038101906104c291906138d6565b611c11565b005b3480156104d557600080fd5b506104f060048036038101906104eb91906136ea565b611d20565b6040516104fd9190613686565b60405180910390f35b34801561051257600080fd5b5061052d60048036038101906105289190613932565b611d51565b005b34801561053b57600080fd5b50610556600480360381019061055191906133c4565b611eff565b60405161056795949392919061348e565b60405180910390f35b34801561057c57600080fd5b5061059760048036038101906105929190613acc565b612065565b005b3480156105a557600080fd5b506105c060048036038101906105bb91906133c4565b612297565b6040516105cf93929190613b73565b60405180910390f35b3480156105e457600080fd5b506105ff60048036038101906105fa9190613bb8565b6123e6565b60405161061196959493929190613837565b60405180910390f35b34801561062657600080fd5b50610641600480360381019061063c91906133c4565b612707565b60405161065396959493929190613837565b60405180910390f35b34801561066857600080fd5b50610683600480360381019061067e919061372a565b612a13565b6040516106909190613815565b60405180910390f35b6106b360048036038101906106ae91906133c4565b612aaa565b005b3480156106c157600080fd5b506106ca612bb5565b6040516106d79190613686565b60405180910390f35b3480156106ec57600080fd5b50610707600480360381019061070291906133c4565b612bff565b60405161071693929190613b73565b60405180910390f35b60008054906101000a900473ffffffffffffffffffffffffffffffffffffffff1673ffffffffffffffffffffffffffffffffffffffff163373ffffffffffffffffffffffffffffffffffffffff16146107ad576040517f08c379a00000000000000000000000000000000000000000000000000000000081526004016107a490613c6a565b60405180910390fd5b600085426040516020016107c2929190613cf3565b6040516020818303038152906040528051906020012060001c90506000600360008381526020019081526020016000209050818160000181905550868160010160006101000a81548173ffffffffffffffffffffffffffffffffffffffff021916908373ffffffffffffffffffffffffffffffffffffffff160217905550858160020190816108519190613f2b565b508481600301908051906020019061086a929190612d39565b5083816004019080519060200190610883929190612d39565b50828160050190816108959190613f2b565b50428160060181905550600460008873ffffffffffffffffffffffffffffffffffffffff1673ffffffffffffffffffffffffffffffffffffffff1681526020019081526020016000208290806001815401808255809150506001900390600052602060002001600090919091909150558673ffffffffffffffffffffffffffffffffffffffff167f9158c4b8b7fff567a0a975ca3187331e08a50d8f2a1f04e986ac1e6e86e8212c8360405161094b9190613686565b60405180910390a250505050505050565b60006003600087815260200190815260200160002060000154036109b5576040517f08c379a00000000000000000000000000000000000000000000000000000000081526004016109ac90614049565b60405180910390fd5b3373ffffffffffffffffffffffffffffffffffffffff166003600087815260200190815260200160002060010160009054906101000a900473ffffffffffffffffffffffffffffffffffffffff1673ffffffffffffffffffffffffffffffffffffffff1614610a59576040517f08c379a0000000000000000000000000000000000000000000000000000000008152600401610a50906140db565b60405180910390fd5b600060036000878152602001908152602001600020905084816002019081610a819190613f2b565b5083816003019080519060200190610a9a929190612d39565b5082816004019080519060200190610ab3929190612d39565b5081816005019081610ac59190613f2b565b503373ffffffffffffffffffffffffffffffffffffffff167f9b8f2dd4f0b06f4b26a2a8b6724772b72e9c37b926cab4d38ae0ff36f9faadf287604051610b0c9190613686565b60405180910390a2505050505050565b60008054906101000a900473ffffffffffffffffffffffffffffffffffffffff1673ffffffffffffffffffffffffffffffffffffffff163373ffffffffffffffffffffffffffffffffffffffff1614610baa576040517f08c379a0000000000000000000000000000000000000000000000000000000008152600401610ba190613c6a565b60405180910390fd5b6000858542604051602001610bc193929190614137565b6040516020818303038152906040528051906020012060001c90506040518060c001604052808281526020018781526020018681526020018581526020018481526020018381525060016000838152602001908152602001600020600082015181600001556020820151816001019081610c3b9190613f2b565b506040820151816002019081610c519190613f2b565b506060820151816003019081610c679190613f2b565b506080820151816004019081610c7d9190613f2b565b5060a0820151816005019081610c939190613f2b565b509050507fdd80b44c858b1da56e0c7431f8556fce71b1ca755eeff5ab0649acca26c23041818787878787604051610cd096959493929190613837565b60405180910390a1505050505050565b60008060608060008060056000888152602001908152602001600020905080600001548160010160009054906101000a900473ffffffffffffffffffffffffffffffffffffffff1682600201836003018460040154828054610d4190613d4e565b80601f0160208091040260200160405190810160405280929190818152602001828054610d6d90613d4e565b8015610dba5780601f10610d8f57610100808354040283529160200191610dba565b820191906000526020600020905b815481529060010190602001808311610d9d57829003601f168201915b50505050509250818054610dcd90613d4e565b80601f0160208091040260200160405190810160405280929190818152602001828054610df990613d4e565b8015610e465780601f10610e1b57610100808354040283529160200191610e46565b820191906000526020600020905b815481529060010190602001808311610e2957829003601f168201915b50505050509150955095509550955095505091939590929450565b600080606080606080600080600360008a8152602001908152602001600020905080600001548160010160009054906101000a900473ffffffffffffffffffffffffffffffffffffffff1682600301836004018460020185600501866006015484805480602002602001604051908101604052809291908181526020016000905b82821015610f8e578382906000526020600020018054610f0190613d4e565b80601f0160208091040260200160405190810160405280929190818152602001828054610f2d90613d4e565b8015610f7a5780601f10610f4f57610100808354040283529160200191610f7a565b820191906000526020600020905b815481529060010190602001808311610f5d57829003601f168201915b505050505081526020019060010190610ee2565b50505050945083805480602002602001604051908101604052809291908181526020016000905b82821015611061578382906000526020600020018054610fd490613d4e565b80601f016020809104026020016040519081016040528092919081815260200182805461100090613d4e565b801561104d5780601f106110225761010080835404028352916020019161104d565b820191906000526020600020905b81548152906001019060200180831161103057829003601f168201915b505050505081526020019060010190610fb5565b50505050935082805461107390613d4e565b80601f016020809104026020016040519081016040528092919081815260200182805461109f90613d4e565b80156110ec5780601f106110c1576101008083540402835291602001916110ec565b820191906000526020600020905b8154815290600101906020018083116110cf57829003601f168201915b505050505092508180546110ff90613d4e565b80601f016020809104026020016040519081016040528092919081815260200182805461112b90613d4e565b80156111785780601f1061114d57610100808354040283529160200191611178565b820191906000526020600020905b81548152906001019060200180831161115b57829003601f168201915b50505050509150975097509750975097509750975050919395979092949650565b662386f26fc1000081565b6000662386f26fc100003410156111f0576040517f08c379a00000000000000000000000000000000000000000000000000000000081526004016111e7906141de565b60405180910390fd5b6000338342604051602001611207939291906141fe565b6040516020818303038152906040528051906020012060001c90506040518060a001604052808281526020013373ffffffffffffffffffffffffffffffffffffffff16815260200184815260200160405180602001604052806000815250815260200142815250600560008381526020019081526020016000206000820151816000015560208201518160010160006101000a81548173ffffffffffffffffffffffffffffffffffffffff021916908373ffffffffffffffffffffffffffffffffffffffff16021790555060408201518160020190816112e79190613f2b565b5060608201518160030190816112fd9190613f2b565b5060808201518160040155905050600660003373ffffffffffffffffffffffffffffffffffffffff1673ffffffffffffffffffffffffffffffffffffffff1681526020019081526020016000208190806001815401808255809150506001900390600052602060002001600090919091909150553373ffffffffffffffffffffffffffffffffffffffff167ff7f80f9a6b3a7339f7b7ef8003834fcaaa597afc805263087e4f3d648b645e1b82856040516113b9929190614237565b60405180910390a280915050919050565b60008054906101000a900473ffffffffffffffffffffffffffffffffffffffff1673ffffffffffffffffffffffffffffffffffffffff163373ffffffffffffffffffffffffffffffffffffffff1614611458576040517f08c379a000000000000000000000000000000000000000000000000000000000815260040161144f90613c6a565b60405180910390fd5b60006003600087815260200190815260200160002060000154036114b1576040517f08c379a00000000000000000000000000000000000000000000000000000000081526004016114a890614049565b60405180910390fd5b6000600360008781526020019081526020016000209050848160020190816114d99190613f2b565b50838160030190805190602001906114f2929190612d39565b508281600401908051906020019061150b929190612d39565b508181600501908161151d9190613f2b565b508060010160009054906101000a900473ffffffffffffffffffffffffffffffffffffffff1673ffffffffffffffffffffffffffffffffffffffff167f9b8f2dd4f0b06f4b26a2a8b6724772b72e9c37b926cab4d38ae0ff36f9faadf2876040516115889190613686565b60405180910390a2505050505050565b60008054906101000a900473ffffffffffffffffffffffffffffffffffffffff1673ffffffffffffffffffffffffffffffffffffffff163373ffffffffffffffffffffffffffffffffffffffff1614611626576040517f08c379a000000000000000000000000000000000000000000000000000000000815260040161161d90613c6a565b60405180910390fd5b60008054906101000a900473ffffffffffffffffffffffffffffffffffffffff1673ffffffffffffffffffffffffffffffffffffffff166108fc479081150290604051600060405180830381858888f1935050505015801561168c573d6000803e3d6000fd5b50565b600460205281600052604060002081815481106116ab57600080fd5b90600052602060002001600091509150505481565b6000600460008373ffffffffffffffffffffffffffffffffffffffff1673ffffffffffffffffffffffffffffffffffffffff168152602001908152602001600020805490509050919050565b6060600660008373ffffffffffffffffffffffffffffffffffffffff1673ffffffffffffffffffffffffffffffffffffffff16815260200190815260200160002080548060200260200160405190810160405280929190818152602001828054801561179757602002820191906000526020600020905b815481526020019060010190808311611783575b50505050509050919050565b60036020528060005260406000206000915090508060000154908060010160009054906101000a900473ffffffffffffffffffffffffffffffffffffffff16908060020180546117f290613d4e565b80601f016020809104026020016040519081016040528092919081815260200182805461181e90613d4e565b801561186b5780601f106118405761010080835404028352916020019161186b565b820191906000526020600020905b81548152906001019060200180831161184e57829003601f168201915b50505050509080600501805461188090613d4e565b80601f01602080910402602001604051908101604052809291908181526020018280546118ac90613d4e565b80156118f95780601f106118ce576101008083540402835291602001916118f9565b820191906000526020600020905b8154815290600101906020018083116118dc57829003601f168201915b5050505050908060060154905085565b600160205280600052604060002060009150905080600001549080600101805461193290613d4e565b80601f016020809104026020016040519081016040528092919081815260200182805461195e90613d4e565b80156119ab5780601f10611980576101008083540402835291602001916119ab565b820191906000526020600020905b81548152906001019060200180831161198e57829003601f168201915b5050505050908060020180546119c090613d4e565b80601f01602080910402602001604051908101604052809291908181526020018280546119ec90613d4e565b8015611a395780601f10611a0e57610100808354040283529160200191611a39565b820191906000526020600020905b815481529060010190602001808311611a1c57829003601f168201915b505050505090806003018054611a4e90613d4e565b80601f0160208091040260200160405190810160405280929190818152602001828054611a7a90613d4e565b8015611ac75780601f10611a9c57610100808354040283529160200191611ac7565b820191906000526020600020905b815481529060010190602001808311611aaa57829003601f168201915b505050505090806004018054611adc90613d4e565b80601f0160208091040260200160405190810160405280929190818152602001828054611b0890613d4e565b8015611b555780601f10611b2a57610100808354040283529160200191611b55565b820191906000526020600020905b815481529060010190602001808311611b3857829003601f168201915b505050505090806005018054611b6a90613d4e565b80601f0160208091040260200160405190810160405280929190818152602001828054611b9690613d4e565b8015611be35780601f10611bb857610100808354040283529160200191611be3565b820191906000526020600020905b815481529060010190602001808311611bc657829003601f168201915b5050505050905086565b60008054906101000a900473ffffffffffffffffffffffffffffffffffffffff1681565b60008054906101000a900473ffffffffffffffffffffffffffffffffffffffff1673ffffffffffffffffffffffffffffffffffffffff163373ffffffffffffffffffffffffffffffffffffffff1614611c9f576040517f08c379a0000000000000000000000000000000000000000000000000000000008152600401611c9690613c6a565b60405180910390fd5b6000600560008481526020019081526020016000206000015403611cf8576040517f08c379a0000000000000000000000000000000000000000000000000000000008152600401611cef906142b3565b60405180910390fd5b80600560008481526020019081526020016000206003019081611d1b9190613f2b565b505050565b60066020528160005260406000208181548110611d3c57600080fd5b90600052602060002001600091509150505481565b60003342604051602001611d66929190613cf3565b6040516020818303038152906040528051906020012060001c90506000600360008381526020019081526020016000209050818160000181905550338160010160006101000a81548173ffffffffffffffffffffffffffffffffffffffff021916908373ffffffffffffffffffffffffffffffffffffffff16021790555085816002019081611df59190613f2b565b5084816003019080519060200190611e0e929190612d39565b5083816004019080519060200190611e27929190612d39565b5082816005019081611e399190613f2b565b50428160060181905550600460003373ffffffffffffffffffffffffffffffffffffffff1673ffffffffffffffffffffffffffffffffffffffff1681526020019081526020016000208290806001815401808255809150506001900390600052602060002001600090919091909150553373ffffffffffffffffffffffffffffffffffffffff167f9158c4b8b7fff567a0a975ca3187331e08a50d8f2a1f04e986ac1e6e86e8212c83604051611eef9190613686565b60405180910390a2505050505050565b60056020528060005260406000206000915090508060000154908060010160009054906101000a900473ffffffffffffffffffffffffffffffffffffffff1690806002018054611f4e90613d4e565b80601f0160208091040260200160405190810160405280929190818152602001828054611f7a90613d4e565b8015611fc75780601f10611f9c57610100808354040283529160200191611fc7565b820191906000526020600020905b815481529060010190602001808311611faa57829003601f168201915b505050505090806003018054611fdc90613d4e565b80601f016020809104026020016040519081016040528092919081815260200182805461200890613d4e565b80156120555780601f1061202a57610100808354040283529160200191612055565b820191906000526020600020905b81548152906001019060200180831161203857829003601f168201915b5050505050908060040154905085565b60008054906101000a900473ffffffffffffffffffffffffffffffffffffffff1673ffffffffffffffffffffffffffffffffffffffff163373ffffffffffffffffffffffffffffffffffffffff16146120f3576040517f08c379a00000000000000000000000000000000000000000000000000000000081526004016120ea90613c6a565b60405180910390fd5b600083834260405160200161210a93929190614137565b6040516020818303038152906040528051906020012060001c90506000600260008381526020019081526020016000209050818160000181905550848160010190816121569190613f2b565b50838160020190816121689190613f2b565b5060005b8351811015612254576001600085838151811061218c5761218b6142d3565b5b602002602001015181526020019081526020016000208260030160008684815181106121bb576121ba6142d3565b5b6020026020010151815260200190815260200160002060008201548160000155600182018160010190816121ef9190614318565b50600282018160020190816122049190614318565b50600382018160030190816122199190614318565b506004820181600401908161222e9190614318565b50600582018160050190816122439190614318565b50905050808060010191505061216c565b507fb4c05240c9123bc1e0c4f8d3f24c7576a172360a19d1f98b4a97cd375842263182868660405161228893929190613b73565b60405180910390a15050505050565b60006060806000600260008681526020019081526020016000209050806000015481600101826002018180546122cc90613d4e565b80601f01602080910402602001604051908101604052809291908181526020018280546122f890613d4e565b80156123455780601f1061231a57610100808354040283529160200191612345565b820191906000526020600020905b81548152906001019060200180831161232857829003601f168201915b5050505050915080805461235890613d4e565b80601f016020809104026020016040519081016040528092919081815260200182805461238490613d4e565b80156123d15780601f106123a6576101008083540402835291602001916123d1565b820191906000526020600020905b8154815290600101906020018083116123b457829003601f168201915b50505050509050935093509350509193909250565b600060608060608060606000600260008a8152602001908152602001600020600301600089815260200190815260200160002090508060000154816001018260020183600301846004018560050184805461244090613d4e565b80601f016020809104026020016040519081016040528092919081815260200182805461246c90613d4e565b80156124b95780601f1061248e576101008083540402835291602001916124b9565b820191906000526020600020905b81548152906001019060200180831161249c57829003601f168201915b505050505094508380546124cc90613d4e565b80601f01602080910402602001604051908101604052809291908181526020018280546124f890613d4e565b80156125455780601f1061251a57610100808354040283529160200191612545565b820191906000526020600020905b81548152906001019060200180831161252857829003601f168201915b5050505050935082805461255890613d4e565b80601f016020809104026020016040519081016040528092919081815260200182805461258490613d4e565b80156125d15780601f106125a6576101008083540402835291602001916125d1565b820191906000526020600020905b8154815290600101906020018083116125b457829003601f168201915b505050505092508180546125e490613d4e565b80601f016020809104026020016040519081016040528092919081815260200182805461261090613d4e565b801561265d5780601f106126325761010080835404028352916020019161265d565b820191906000526020600020905b81548152906001019060200180831161264057829003601f168201915b5050505050915080805461267090613d4e565b80601f016020809104026020016040519081016040528092919081815260200182805461269c90613d4e565b80156126e95780601f106126be576101008083540402835291602001916126e9565b820191906000526020600020905b8154815290600101906020018083116126cc57829003601f168201915b50505050509050965096509650965096509650509295509295509295565b6000606080606080606060006001600089815260200190815260200160002090508060000154816001018260020183600301846004018560050184805461274d90613d4e565b80601f016020809104026020016040519081016040528092919081815260200182805461277990613d4e565b80156127c65780601f1061279b576101008083540402835291602001916127c6565b820191906000526020600020905b8154815290600101906020018083116127a957829003601f168201915b505050505094508380546127d990613d4e565b80601f016020809104026020016040519081016040528092919081815260200182805461280590613d4e565b80156128525780601f1061282757610100808354040283529160200191612852565b820191906000526020600020905b81548152906001019060200180831161283557829003601f168201915b5050505050935082805461286590613d4e565b80601f016020809104026020016040519081016040528092919081815260200182805461289190613d4e565b80156128de5780601f106128b3576101008083540402835291602001916128de565b820191906000526020600020905b8154815290600101906020018083116128c157829003601f168201915b505050505092508180546128f190613d4e565b80601f016020809104026020016040519081016040528092919081815260200182805461291d90613d4e565b801561296a5780601f1061293f5761010080835404028352916020019161296a565b820191906000526020600020905b81548152906001019060200180831161294d57829003601f168201915b5050505050915080805461297d90613d4e565b80601f01602080910402602001604051908101604052809291908181526020018280546129a990613d4e565b80156129f65780601f106129cb576101008083540402835291602001916129f6565b820191906000526020600020905b8154815290600101906020018083116129d957829003601f168201915b505050505090509650965096509650965096505091939550919395565b6060600460008373ffffffffffffffffffffffffffffffffffffffff1673ffffffffffffffffffffffffffffffffffffffff168152602001908152602001600020805480602002602001604051908101604052809291908181526020018280548015612a9e57602002820191906000526020600020905b815481526020019060010190808311612a8a575b50505050509050919050565b662386f26fc10000341015612af4576040517f08c379a0000000000000000000000000000000000000000000000000000000008152600401612aeb9061444c565b60405180910390fd5b6000600260008381526020019081526020016000206000015403612b4d576040517f08c379a0000000000000000000000000000000000000000000000000000000008152600401612b44906144b8565b60405180910390fd5b7ffb33bc41b91b9a701b4d0981ddc8499a6afe3b03439ac8bb59fb01ee066b2385816002600084815260200190815260200160002060010160026000858152602001908152602001600020600201604051612baa9392919061455c565b60405180910390a150565b6000600460003373ffffffffffffffffffffffffffffffffffffffff1673ffffffffffffffffffffffffffffffffffffffff16815260200190815260200160002080549050905090565b6002602052806000526040600020600091509050806000015490806001018054612c2890613d4e565b80601f0160208091040260200160405190810160405280929190818152602001828054612c5490613d4e565b8015612ca15780601f10612c7657610100808354040283529160200191612ca1565b820191906000526020600020905b815481529060010190602001808311612c8457829003601f168201915b505050505090806002018054612cb690613d4e565b80601f0160208091040260200160405190810160405280929190818152602001828054612ce290613d4e565b8015612d2f5780601f10612d0457610100808354040283529160200191612d2f565b820191906000526020600020905b815481529060010190602001808311612d1257829003601f168201915b5050505050905083565b828054828255906000526020600020908101928215612d81579160200282015b82811115612d80578251829081612d709190613f2b565b5091602001919060010190612d59565b5b509050612d8e9190612d92565b5090565b5b80821115612db25760008181612da99190612db6565b50600101612d93565b5090565b508054612dc290613d4e565b6000825580601f10612dd45750612df3565b601f016020900490600052602060002090810190612df29190612df6565b5b50565b5b80821115612e0f576000816000905550600101612df7565b5090565b6000604051905090565b600080fd5b600080fd5b600073ffffffffffffffffffffffffffffffffffffffff82169050919050565b6000612e5282612e27565b9050919050565b612e6281612e47565b8114612e6d57600080fd5b50565b600081359050612e7f81612e59565b92915050565b600080fd5b600080fd5b6000601f19601f8301169050919050565b7f4e487b7100000000000000000000000000000000000000000000000000000000600052604160045260246000fd5b612ed882612e8f565b810181811067ffffffffffffffff82111715612ef757612ef6612ea0565b5b80604052505050565b6000612f0a612e13565b9050612f168282612ecf565b919050565b600067ffffffffffffffff821115612f3657612f35612ea0565b5b612f3f82612e8f565b9050602081019050919050565b82818337600083830152505050565b6000612f6e612f6984612f1b565b612f00565b905082815260208101848484011115612f8a57612f89612e8a565b5b612f95848285612f4c565b509392505050565b600082601f830112612fb257612fb1612e85565b5b8135612fc2848260208601612f5b565b91505092915050565b600067ffffffffffffffff821115612fe657612fe5612ea0565b5b602082029050602081019050919050565b600080fd5b600061300f61300a84612fcb565b612f00565b9050808382526020820190506020840283018581111561303257613031612ff7565b5b835b8181101561307957803567ffffffffffffffff81111561305757613056612e85565b5b8086016130648982612f9d565b85526020850194505050602081019050613034565b5050509392505050565b600082601f83011261309857613097612e85565b5b81356130a8848260208601612ffc565b91505092915050565b600080600080600060a086880312156130cd576130cc612e1d565b5b60006130db88828901612e70565b955050602086013567ffffffffffffffff8111156130fc576130fb612e22565b5b61310888828901612f9d565b945050604086013567ffffffffffffffff81111561312957613128612e22565b5b61313588828901613083565b935050606086013567ffffffffffffffff81111561315657613155612e22565b5b61316288828901613083565b925050608086013567ffffffffffffffff81111561318357613182612e22565b5b61318f88828901612f9d565b9150509295509295909350565b6000819050919050565b6131af8161319c565b81146131ba57600080fd5b50565b6000813590506131cc816131a6565b92915050565b600080600080600060a086880312156131ee576131ed612e1d565b5b60006131fc888289016131bd565b955050602086013567ffffffffffffffff81111561321d5761321c612e22565b5b61322988828901612f9d565b945050604086013567ffffffffffffffff81111561324a57613249612e22565b5b61325688828901613083565b935050606086013567ffffffffffffffff81111561327757613276612e22565b5b61328388828901613083565b925050608086013567ffffffffffffffff8111156132a4576132a3612e22565b5b6132b088828901612f9d565b9150509295509295909350565b600080600080600060a086880312156132d9576132d8612e1d565b5b600086013567ffffffffffffffff8111156132f7576132f6612e22565b5b61330388828901612f9d565b955050602086013567ffffffffffffffff81111561332457613323612e22565b5b61333088828901612f9d565b945050604086013567ffffffffffffffff81111561335157613350612e22565b5b61335d88828901612f9d565b935050606086013567ffffffffffffffff81111561337e5761337d612e22565b5b61338a88828901612f9d565b925050608086013567ffffffffffffffff8111156133ab576133aa612e22565b5b6133b788828901612f9d565b9150509295509295909350565b6000602082840312156133da576133d9612e1d565b5b60006133e8848285016131bd565b91505092915050565b6133fa8161319c565b82525050565b61340981612e47565b82525050565b600081519050919050565b600082825260208201905092915050565b60005b8381101561344957808201518184015260208101905061342e565b60008484015250505050565b60006134608261340f565b61346a818561341a565b935061347a81856020860161342b565b61348381612e8f565b840191505092915050565b600060a0820190506134a360008301886133f1565b6134b06020830187613400565b81810360408301526134c28186613455565b905081810360608301526134d68185613455565b90506134e560808301846133f1565b9695505050505050565b600081519050919050565b600082825260208201905092915050565b6000819050602082019050919050565b600082825260208201905092915050565b60006135378261340f565b613541818561351b565b935061355181856020860161342b565b61355a81612e8f565b840191505092915050565b6000613571838361352c565b905092915050565b6000602082019050919050565b6000613591826134ef565b61359b81856134fa565b9350836020820285016135ad8561350b565b8060005b858110156135e957848403895281516135ca8582613565565b94506135d583613579565b925060208a019950506001810190506135b1565b50829750879550505050505092915050565b600060e082019050613610600083018a6133f1565b61361d6020830189613400565b818103604083015261362f8188613586565b905081810360608301526136438187613586565b905081810360808301526136578186613455565b905081810360a083015261366b8185613455565b905061367a60c08301846133f1565b98975050505050505050565b600060208201905061369b60008301846133f1565b92915050565b6000602082840312156136b7576136b6612e1d565b5b600082013567ffffffffffffffff8111156136d5576136d4612e22565b5b6136e184828501612f9d565b91505092915050565b6000806040838503121561370157613700612e1d565b5b600061370f85828601612e70565b9250506020613720858286016131bd565b9150509250929050565b6000602082840312156137405761373f612e1d565b5b600061374e84828501612e70565b91505092915050565b600081519050919050565b600082825260208201905092915050565b6000819050602082019050919050565b61378c8161319c565b82525050565b600061379e8383613783565b60208301905092915050565b6000602082019050919050565b60006137c282613757565b6137cc8185613762565b93506137d783613773565b8060005b838110156138085781516137ef8882613792565b97506137fa836137aa565b9250506001810190506137db565b5085935050505092915050565b6000602082019050818103600083015261382f81846137b7565b905092915050565b600060c08201905061384c60008301896133f1565b818103602083015261385e8188613455565b905081810360408301526138728187613455565b905081810360608301526138868186613455565b9050818103608083015261389a8185613455565b905081810360a08301526138ae8184613455565b9050979650505050505050565b60006020820190506138d06000830184613400565b92915050565b600080604083850312156138ed576138ec612e1d565b5b60006138fb858286016131bd565b925050602083013567ffffffffffffffff81111561391c5761391b612e22565b5b61392885828601612f9d565b9150509250929050565b6000806000806080858703121561394c5761394b612e1d565b5b600085013567ffffffffffffffff81111561396a57613969612e22565b5b61397687828801612f9d565b945050602085013567ffffffffffffffff81111561399757613996612e22565b5b6139a387828801613083565b935050604085013567ffffffffffffffff8111156139c4576139c3612e22565b5b6139d087828801613083565b925050606085013567ffffffffffffffff8111156139f1576139f0612e22565b5b6139fd87828801612f9d565b91505092959194509250565b600067ffffffffffffffff821115613a2457613a23612ea0565b5b602082029050602081019050919050565b6000613a48613a4384613a09565b612f00565b90508083825260208201905060208402830185811115613a6b57613a6a612ff7565b5b835b81811015613a945780613a8088826131bd565b845260208401935050602081019050613a6d565b5050509392505050565b600082601f830112613ab357613ab2612e85565b5b8135613ac3848260208601613a35565b91505092915050565b600080600060608486031215613ae557613ae4612e1d565b5b600084013567ffffffffffffffff811115613b0357613b02612e22565b5b613b0f86828701612f9d565b935050602084013567ffffffffffffffff811115613b3057613b2f612e22565b5b613b3c86828701612f9d565b925050604084013567ffffffffffffffff811115613b5d57613b5c612e22565b5b613b6986828701613a9e565b9150509250925092565b6000606082019050613b8860008301866133f1565b8181036020830152613b9a8185613455565b90508181036040830152613bae8184613455565b9050949350505050565b60008060408385031215613bcf57613bce612e1d565b5b6000613bdd858286016131bd565b9250506020613bee858286016131bd565b9150509250929050565b7f4f6e6c7920746865206f776e65722063616e2063616c6c20746869732066756e60008201527f6374696f6e000000000000000000000000000000000000000000000000000000602082015250565b6000613c5460258361341a565b9150613c5f82613bf8565b604082019050919050565b60006020820190508181036000830152613c8381613c47565b9050919050565b60008160601b9050919050565b6000613ca282613c8a565b9050919050565b6000613cb482613c97565b9050919050565b613ccc613cc782612e47565b613ca9565b82525050565b6000819050919050565b613ced613ce88261319c565b613cd2565b82525050565b6000613cff8285613cbb565b601482019150613d0f8284613cdc565b6020820191508190509392505050565b7f4e487b7100000000000000000000000000000000000000000000000000000000600052602260045260246000fd5b60006002820490506001821680613d6657607f821691505b602082108103613d7957613d78613d1f565b5b50919050565b60008190508160005260206000209050919050565b60006020601f8301049050919050565b600082821b905092915050565b600060088302613de17fffffffffffffffffffffffffffffffffffffffffffffffffffffffffffffffff82613da4565b613deb8683613da4565b95508019841693508086168417925050509392505050565b6000819050919050565b6000613e28613e23613e1e8461319c565b613e03565b61319c565b9050919050565b6000819050919050565b613e4283613e0d565b613e56613e4e82613e2f565b848454613db1565b825550505050565b600090565b613e6b613e5e565b613e76818484613e39565b505050565b5b81811015613e9a57613e8f600082613e63565b600181019050613e7c565b5050565b601f821115613edf57613eb081613d7f565b613eb984613d94565b81016020851015613ec8578190505b613edc613ed485613d94565b830182613e7b565b50505b505050565b600082821c905092915050565b6000613f0260001984600802613ee4565b1980831691505092915050565b6000613f1b8383613ef1565b9150826002028217905092915050565b613f348261340f565b67ffffffffffffffff811115613f4d57613f4c612ea0565b5b613f578254613d4e565b613f62828285613e9e565b600060209050601f831160018114613f955760008415613f83578287015190505b613f8d8582613f0f565b865550613ff5565b601f198416613fa386613d7f565b60005b82811015613fcb57848901518255600182019150602085019450602081019050613fa6565b86831015613fe85784890151613fe4601f891682613ef1565b8355505b6001600288020188555050505b505050505050565b7f53757276657920646f6573206e6f742065786973740000000000000000000000600082015250565b600061403360158361341a565b915061403e82613ffd565b602082019050919050565b6000602082019050818103600083015261406281614026565b9050919050565b7f4e6f7420617574686f72697a656420746f20757064617465207468697320737560008201527f7276657900000000000000000000000000000000000000000000000000000000602082015250565b60006140c560248361341a565b91506140d082614069565b604082019050919050565b600060208201905081810360008301526140f4816140b8565b9050919050565b600081905092915050565b60006141118261340f565b61411b81856140fb565b935061412b81856020860161342b565b80840191505092915050565b60006141438286614106565b915061414f8285614106565b915061415b8284613cdc565b602082019150819050949350505050565b7f496e73756666696369656e74207061796d656e742e2054686520636f7374206960008201527f7320302e3031204554482e000000000000000000000000000000000000000000602082015250565b60006141c8602b8361341a565b91506141d38261416c565b604082019050919050565b600060208201905081810360008301526141f7816141bb565b9050919050565b600061420a8286613cbb565b60148201915061421a8285614106565b91506142268284613cdc565b602082019150819050949350505050565b600060408201905061424c60008301856133f1565b818103602083015261425e8184613455565b90509392505050565b7f47656e657261746564207061746820646f6573206e6f74206578697374000000600082015250565b600061429d601d8361341a565b91506142a882614267565b602082019050919050565b600060208201905081810360008301526142cc81614290565b9050919050565b7f4e487b7100000000000000000000000000000000000000000000000000000000600052603260045260246000fd5b60008154905061431181613d4e565b9050919050565b8181036143265750506143fe565b61432f82614302565b67ffffffffffffffff81111561434857614347612ea0565b5b6143528254613d4e565b61435d828285613e9e565b6000601f83116001811461438c576000841561437a578287015490505b6143848582613f0f565b8655506143f7565b601f19841661439a87613d7f565b96506143a586613d7f565b60005b828110156143cd578489015482556001820191506001850194506020810190506143a8565b868310156143ea57848901546143e6601f891682613ef1565b8355505b6001600288020188555050505b5050505050505b565b7f596f75206d75737420706179206174206c6561737420302e3031206574686572600082015250565b600061443660208361341a565b915061444182614400565b602082019050919050565b6000602082019050818103600083015261446581614429565b9050919050565b7f5061746820646f6573206e6f7420657869737400000000000000000000000000600082015250565b60006144a260138361341a565b91506144ad8261446c565b602082019050919050565b600060208201905081810360008301526144d181614495565b9050919050565b600081546144e581613d4e565b6144ef818661341a565b9450600182166000811461450a576001811461452057614553565b60ff198316865281151560200286019350614553565b61452985613d7f565b60005b8381101561454b5781548189015260018201915060208101905061452c565b808801955050505b50505092915050565b600060608201905061457160008301866133f1565b818103602083015261458381856144d8565b9050818103604083015261459781846144d8565b905094935050505056fea2646970667358221220336e1163dad61326e5745566ee016dddc40ed2ceb8a0e12a47a681e2c037a9e864736f6c634300081c0033",
  "linkReferences": {},
  "deployedLinkReferences": {}
}