{
  "_format": "hh-sol-artifact-1",
  "contractName": "Sufle",
  "sourceName": "contracts/Sufle.sol",
  "abi": [
    {
      "inputs": [],
      "stateMutability": "nonpayable",
      "type": "constructor"
    },
    {
      "anonymous": false,
      "inputs": [
        {
          "indexed": false,
          "internalType": "uint256",
          "name": "pathId",
          "type": "uint256"
        },
        {
          "indexed": true,
          "internalType": "address",
          "name": "creator",
          "type": "address"
        },
        {
          "indexed": false,
          "internalType": "string",
          "name": "description",
          "type": "string"
        }
      ],
      "name": "AIPathGenerated",
      "type": "event"
    },
    {
      "anonymous": false,
      "inputs": [
        {
          "indexed": false,
          "internalType": "uint256",
          "name": "pathId",
          "type": "uint256"
        },
        {
          "indexed": false,
          "internalType": "string",
          "name": "title",
          "type": "string"
        },
        {
          "indexed": false,
          "internalType": "string",
          "name": "description",
          "type": "string"
        }
      ],
      "name": "GeneratedPath",
      "type": "event"
    },
    {
      "anonymous": false,
      "inputs": [
        {
          "indexed": false,
          "internalType": "uint256",
          "name": "pathId",
          "type": "uint256"
        },
        {
          "indexed": false,
          "internalType": "string",
          "name": "title",
          "type": "string"
        },
        {
          "indexed": false,
          "internalType": "string",
          "name": "description",
          "type": "string"
        }
      ],
      "name": "PathCreated",
      "type": "event"
    },
    {
      "anonymous": false,
      "inputs": [
        {
          "indexed": false,
          "internalType": "uint256",
          "name": "surveyId",
          "type": "uint256"
        },
        {
          "indexed": true,
          "internalType": "address",
          "name": "userAddress",
          "type": "address"
        }
      ],
      "name": "SurveyCreated",
      "type": "event"
    },
    {
      "anonymous": false,
      "inputs": [
        {
          "indexed": false,
          "internalType": "uint256",
          "name": "surveyId",
          "type": "uint256"
        },
        {
          "indexed": true,
          "internalType": "address",
          "name": "userAddress",
          "type": "address"
        }
      ],
      "name": "SurveyUpdated",
      "type": "event"
    },
    {
      "anonymous": false,
      "inputs": [
        {
          "indexed": false,
          "internalType": "uint256",
          "name": "taskId",
          "type": "uint256"
        },
        {
          "indexed": false,
          "internalType": "string",
          "name": "title",
          "type": "string"
        },
        {
          "indexed": false,
          "internalType": "string",
          "name": "description",
          "type": "string"
        },
        {
          "indexed": false,
          "internalType": "string",
          "name": "priority",
          "type": "string"
        },
        {
          "indexed": false,
          "internalType": "string",
          "name": "status",
          "type": "string"
        },
        {
          "indexed": false,
          "internalType": "string",
          "name": "tags",
          "type": "string"
        }
      ],
      "name": "TaskCreated",
      "type": "event"
    },
    {
      "inputs": [],
      "name": "PATH_GENERATION_COST",
      "outputs": [
        {
          "internalType": "uint256",
          "name": "",
          "type": "uint256"
        }
      ],
      "stateMutability": "view",
      "type": "function"
    },
    {
      "inputs": [
        {
          "internalType": "string",
          "name": "_title",
          "type": "string"
        },
        {
          "internalType": "string",
          "name": "_description",
          "type": "string"
        },
        {
          "internalType": "uint256[]",
          "name": "_taskIds",
          "type": "uint256[]"
        }
      ],
      "name": "createPath",
      "outputs": [],
      "stateMutability": "nonpayable",
      "type": "function"
    },
    {
      "inputs": [
        {
          "internalType": "address",
          "name": "_userAddress",
          "type": "address"
        },
        {
          "internalType": "string",
          "name": "_occupation",
          "type": "string"
        },
        {
          "internalType": "string[]",
          "name": "_interestedCategories",
          "type": "string[]"
        },
        {
          "internalType": "string[]",
          "name": "_motivations",
          "type": "string[]"
        },
        {
          "internalType": "string",
          "name": "_lifeGoals",
          "type": "string"
        }
      ],
      "name": "createSurveyForUser",
      "outputs": [],
      "stateMutability": "nonpayable",
      "type": "function"
    },
    {
      "inputs": [
        {
          "internalType": "string",
          "name": "_title",
          "type": "string"
        },
        {
          "internalType": "string",
          "name": "_description",
          "type": "string"
        },
        {
          "internalType": "string",
          "name": "_priority",
          "type": "string"
        },
        {
          "internalType": "string",
          "name": "_status",
          "type": "string"
        },
        {
          "internalType": "string",
          "name": "_tags",
          "type": "string"
        }
      ],
      "name": "createTask",
      "outputs": [],
      "stateMutability": "nonpayable",
      "type": "function"
    },
    {
      "inputs": [
        {
          "internalType": "string",
          "name": "_occupation",
          "type": "string"
        },
        {
          "internalType": "string[]",
          "name": "_interestedCategories",
          "type": "string[]"
        },
        {
          "internalType": "string[]",
          "name": "_motivations",
          "type": "string[]"
        },
        {
          "internalType": "string",
          "name": "_lifeGoals",
          "type": "string"
        }
      ],
      "name": "createUserSurvey",
      "outputs": [],
      "stateMutability": "nonpayable",
      "type": "function"
    },
    {
      "inputs": [
        {
          "internalType": "uint256",
          "name": "_id",
          "type": "uint256"
        }
      ],
      "name": "generatePathWithAI",
      "outputs": [],
      "stateMutability": "payable",
      "type": "function"
    },
    {
      "inputs": [
        {
          "internalType": "string",
          "name": "_description",
          "type": "string"
        }
      ],
      "name": "generatePathWithDescription",
      "outputs": [
        {
          "internalType": "uint256",
          "name": "",
          "type": "uint256"
        }
      ],
      "stateMutability": "payable",
      "type": "function"
    },
    {
      "inputs": [
        {
          "internalType": "uint256",
          "name": "",
          "type": "uint256"
        }
      ],
      "name": "generatedAIPaths",
      "outputs": [
        {
          "internalType": "uint256",
          "name": "pathId",
          "type": "uint256"
        },
        {
          "internalType": "address",
          "name": "creator",
          "type": "address"
        },
        {
          "internalType": "string",
          "name": "description",
          "type": "string"
        },
        {
          "internalType": "string",
          "name": "title",
          "type": "string"
        },
        {
          "internalType": "uint256",
          "name": "timestamp",
          "type": "uint256"
        }
      ],
      "stateMutability": "view",
      "type": "function"
    },
    {
      "inputs": [],
      "name": "getCurrentUserSurveyCount",
      "outputs": [
        {
          "internalType": "uint256",
          "name": "",
          "type": "uint256"
        }
      ],
      "stateMutability": "view",
      "type": "function"
    },
    {
      "inputs": [
        {
          "internalType": "uint256",
          "name": "_pathId",
          "type": "uint256"
        }
      ],
      "name": "getGeneratedPathInfo",
      "outputs": [
        {
          "internalType": "uint256",
          "name": "pathId",
          "type": "uint256"
        },
        {
          "internalType": "address",
          "name": "creator",
          "type": "address"
        },
        {
          "internalType": "string",
          "name": "description",
          "type": "string"
        },
        {
          "internalType": "string",
          "name": "title",
          "type": "string"
        },
        {
          "internalType": "uint256",
          "name": "timestamp",
          "type": "uint256"
        }
      ],
      "stateMutability": "view",
      "type": "function"
    },
    {
      "inputs": [
        {
          "internalType": "uint256",
          "name": "_pathId",
          "type": "uint256"
        }
      ],
      "name": "getPathInfo",
      "outputs": [
        {
          "internalType": "uint256",
          "name": "",
          "type": "uint256"
        },
        {
          "internalType": "string",
          "name": "",
          "type": "string"
        },
        {
          "internalType": "string",
          "name": "",
          "type": "string"
        }
      ],
      "stateMutability": "view",
      "type": "function"
    },
    {
      "inputs": [
        {
          "internalType": "uint256",
          "name": "_pathId",
          "type": "uint256"
        },
        {
          "internalType": "uint256",
          "name": "_taskId",
          "type": "uint256"
        }
      ],
      "name": "getPathTask",
      "outputs": [
        {
          "internalType": "uint256",
          "name": "",
          "type": "uint256"
        },
        {
          "internalType": "string",
          "name": "",
          "type": "string"
        },
        {
          "internalType": "string",
          "name": "",
          "type": "string"
        },
        {
          "internalType": "string",
          "name": "",
          "type": "string"
        },
        {
          "internalType": "string",
          "name": "",
          "type": "string"
        },
        {
          "internalType": "string",
          "name": "",
          "type": "string"
        }
      ],
      "stateMutability": "view",
      "type": "function"
    },
    {
      "inputs": [
        {
          "internalType": "uint256",
          "name": "_surveyId",
          "type": "uint256"
        }
      ],
      "name": "getSurveyInfo",
      "outputs": [
        {
          "internalType": "uint256",
          "name": "",
          "type": "uint256"
        },
        {
          "internalType": "address",
          "name": "",
          "type": "address"
        },
        {
          "internalType": "string[]",
          "name": "",
          "type": "string[]"
        },
        {
          "internalType": "string[]",
          "name": "",
          "type": "string[]"
        },
        {
          "internalType": "string",
          "name": "",
          "type": "string"
        },
        {
          "internalType": "string",
          "name": "",
          "type": "string"
        },
        {
          "internalType": "uint256",
          "name": "",
          "type": "uint256"
        }
      ],
      "stateMutability": "view",
      "type": "function"
    },
    {
      "inputs": [
        {
          "internalType": "uint256",
          "name": "_taskId",
          "type": "uint256"
        }
      ],
      "name": "getTaskInfo",
      "outputs": [
        {
          "internalType": "uint256",
          "name": "",
          "type": "uint256"
        },
        {
          "internalType": "string",
          "name": "",
          "type": "string"
        },
        {
          "internalType": "string",
          "name": "",
          "type": "string"
        },
        {
          "internalType": "string",
          "name": "",
          "type": "string"
        },
        {
          "internalType": "string",
          "name": "",
          "type": "string"
        },
        {
          "internalType": "string",
          "name": "",
          "type": "string"
        }
      ],
      "stateMutability": "view",
      "type": "function"
    },
    {
      "inputs": [
        {
          "internalType": "address",
          "name": "_user",
          "type": "address"
        }
      ],
      "name": "getUserGeneratedPaths",
      "outputs": [
        {
          "internalType": "uint256[]",
          "name": "",
          "type": "uint256[]"
        }
      ],
      "stateMutability": "view",
      "type": "function"
    },
    {
      "inputs": [
        {
          "internalType": "address",
          "name": "_userAddress",
          "type": "address"
        }
      ],
      "name": "getUserSurveyCount",
      "outputs": [
        {
          "internalType": "uint256",
          "name": "",
          "type": "uint256"
        }
      ],
      "stateMutability": "view",
      "type": "function"
    },
    {
      "inputs": [
        {
          "internalType": "address",
          "name": "_userAddress",
          "type": "address"
        }
      ],
      "name": "getUserSurveyIds",
      "outputs": [
        {
          "internalType": "uint256[]",
          "name": "",
          "type": "uint256[]"
        }
      ],
      "stateMutability": "view",
      "type": "function"
    },
    {
      "inputs": [],
      "name": "owner",
      "outputs": [
        {
          "internalType": "address",
          "name": "",
          "type": "address"
        }
      ],
      "stateMutability": "view",
      "type": "function"
    },
    {
      "inputs": [
        {
          "internalType": "uint256",
          "name": "",
          "type": "uint256"
        }
      ],
      "name": "paths",
      "outputs": [
        {
          "internalType": "uint256",
          "name": "pathId",
          "type": "uint256"
        },
        {
          "internalType": "string",
          "name": "title",
          "type": "string"
        },
        {
          "internalType": "string",
          "name": "description",
          "type": "string"
        }
      ],
      "stateMutability": "view",
      "type": "function"
    },
    {
      "inputs": [
        {
          "internalType": "uint256",
          "name": "",
          "type": "uint256"
        }
      ],
      "name": "surveys",
      "outputs": [
        {
          "internalType": "uint256",
          "name": "surveyId",
          "type": "uint256"
        },
        {
          "internalType": "address",
          "name": "userAddress",
          "type": "address"
        },
        {
          "internalType": "string",
          "name": "occupation",
          "type": "string"
        },
        {
          "internalType": "string",
          "name": "lifeGoals",
          "type": "string"
        },
        {
          "internalType": "uint256",
          "name": "createdAt",
          "type": "uint256"
        }
      ],
      "stateMutability": "view",
      "type": "function"
    },
    {
      "inputs": [
        {
          "internalType": "uint256",
          "name": "",
          "type": "uint256"
        }
      ],
      "name": "tasks",
      "outputs": [
        {
          "internalType": "uint256",
          "name": "taskId",
          "type": "uint256"
        },
        {
          "internalType": "string",
          "name": "title",
          "type": "string"
        },
        {
          "internalType": "string",
          "name": "description",
          "type": "string"
        },
        {
          "internalType": "string",
          "name": "priority",
          "type": "string"
        },
        {
          "internalType": "string",
          "name": "status",
          "type": "string"
        },
        {
          "internalType": "string",
          "name": "tags",
          "type": "string"
        }
      ],
      "stateMutability": "view",
      "type": "function"
    },
    {
      "inputs": [
        {
          "internalType": "uint256",
          "name": "_pathId",
          "type": "uint256"
        },
        {
          "internalType": "string",
          "name": "_title",
          "type": "string"
        }
      ],
      "name": "updateGeneratedPathTitle",
      "outputs": [],
      "stateMutability": "nonpayable",
      "type": "function"
    },
    {
      "inputs": [
        {
          "internalType": "uint256",
          "name": "_surveyId",
          "type": "uint256"
        },
        {
          "internalType": "string",
          "name": "_occupation",
          "type": "string"
        },
        {
          "internalType": "string[]",
          "name": "_interestedCategories",
          "type": "string[]"
        },
        {
          "internalType": "string[]",
          "name": "_motivations",
          "type": "string[]"
        },
        {
          "internalType": "string",
          "name": "_lifeGoals",
          "type": "string"
        }
      ],
      "name": "updateSurvey",
      "outputs": [],
      "stateMutability": "nonpayable",
      "type": "function"
    },
    {
      "inputs": [
        {
          "internalType": "uint256",
          "name": "_surveyId",
          "type": "uint256"
        },
        {
          "internalType": "string",
          "name": "_occupation",
          "type": "string"
        },
        {
          "internalType": "string[]",
          "name": "_interestedCategories",
          "type": "string[]"
        },
        {
          "internalType": "string[]",
          "name": "_motivations",
          "type": "string[]"
        },
        {
          "internalType": "string",
          "name": "_lifeGoals",
          "type": "string"
        }
      ],
      "name": "updateUserSurvey",
      "outputs": [],
      "stateMutability": "nonpayable",
      "type": "function"
    },
    {
      "inputs": [
        {
          "internalType": "address",
          "name": "",
          "type": "address"
        },
        {
          "internalType": "uint256",
          "name": "",
          "type": "uint256"
        }
      ],
      "name": "userGeneratedPaths",
      "outputs": [
        {
          "internalType": "uint256",
          "name": "",
          "type": "uint256"
        }
      ],
      "stateMutability": "view",
      "type": "function"
    },
    {
      "inputs": [
        {
          "internalType": "address",
          "name": "",
          "type": "address"
        },
        {
          "internalType": "uint256",
          "name": "",
          "type": "uint256"
        }
      ],
      "name": "userSurveys",
      "outputs": [
        {
          "internalType": "uint256",
          "name": "",
          "type": "uint256"
        }
      ],
      "stateMutability": "view",
      "type": "function"
    },
    {
      "inputs": [],
      "name": "withdraw",
      "outputs": [],
      "stateMutability": "nonpayable",
      "type": "function"
    }
  ],
  "bytecode": "0x608060405234801561001057600080fd5b50336000806101000a81548173ffffffffffffffffffffffffffffffffffffffff021916908373ffffffffffffffffffffffffffffffffffffffff160217905550614654806100606000396000f3fe60806040526004361061019c5760003560e01c80638d977672116100ec578063c11c51991161008a578063da4d483811610064578063da4d48381461065c578063e529546914610699578063f7b53988146106b5578063fc1bcd49146106e05761019c565b8063c11c519914610599578063c528af5c146105d8578063d1a1b9991461061a5761019c565b8063a3b5c3ad116100c6578063a3b5c3ad146104c9578063abf1fe7314610506578063ac57d6031461052f578063b9591192146105705761019c565b80638d977672146104335780638da5cb5b14610475578063a36d0874146104a05761019c565b8063367e13e91161015957806368070eaa1161013357806368070eaa1461033b5780636848e91f14610378578063790e461c146103b557806386e68b90146103f25761019c565b8063367e13e9146102cb5780633cbe7dc4146102fb5780633ccfd60b146103245761019c565b80630d5a659b146101a15780630f482aa2146101ca57806314c02d84146101f3578063202c7ed21461021c5780632e8f34131461025d5780633169757a146102a0575b600080fd5b3480156101ad57600080fd5b506101c860048036038101906101c391906130b7565b61071f565b005b3480156101d657600080fd5b506101f160048036038101906101ec91906131d8565b61095c565b005b3480156101ff57600080fd5b5061021a600480360381019061021591906132c3565b610b1c565b005b34801561022857600080fd5b50610243600480360381019061023e91906133ca565b610ce0565b604051610254959493929190613494565b60405180910390f35b34801561026957600080fd5b50610284600480360381019061027f91906133ca565b610e61565b6040516102979796959493929190613601565b60405180910390f35b3480156102ac57600080fd5b506102b5611199565b6040516102c2919061368c565b60405180910390f35b6102e560048036038101906102e091906136a7565b6111a4565b6040516102f2919061368c565b60405180910390f35b34801561030757600080fd5b50610322600480360381019061031d91906131d8565b6113ca565b005b34801561033057600080fd5b50610339611598565b005b34801561034757600080fd5b50610362600480360381019061035d91906136f0565b61168f565b60405161036f919061368c565b60405180910390f35b34801561038457600080fd5b5061039f600480360381019061039a9190613730565b6116c0565b6040516103ac919061368c565b60405180910390f35b3480156103c157600080fd5b506103dc60048036038101906103d79190613730565b61170c565b6040516103e9919061381b565b60405180910390f35b3480156103fe57600080fd5b50610419600480360381019061041491906133ca565b6117a3565b60405161042a959493929190613494565b60405180910390f35b34801561043f57600080fd5b5061045a600480360381019061045591906133ca565b611909565b60405161046c9695949392919061383d565b60405180910390f35b34801561048157600080fd5b5061048a611bed565b60405161049791906138c1565b60405180910390f35b3480156104ac57600080fd5b506104c760048036038101906104c291906138dc565b611c11565b005b3480156104d557600080fd5b506104f060048036038101906104eb91906136f0565b611d20565b6040516104fd919061368c565b60405180910390f35b34801561051257600080fd5b5061052d60048036038101906105289190613938565b611d51565b005b34801561053b57600080fd5b50610556600480360381019061055191906133ca565b611eff565b604051610567959493929190613494565b60405180910390f35b34801561057c57600080fd5b5061059760048036038101906105929190613ad2565b612065565b005b3480156105a557600080fd5b506105c060048036038101906105bb91906133ca565b61229d565b6040516105cf93929190613b79565b60405180910390f35b3480156105e457600080fd5b506105ff60048036038101906105fa9190613bbe565b6123ec565b6040516106119695949392919061383d565b60405180910390f35b34801561062657600080fd5b50610641600480360381019061063c91906133ca565b61270d565b6040516106539695949392919061383d565b60405180910390f35b34801561066857600080fd5b50610683600480360381019061067e9190613730565b612a19565b604051610690919061381b565b60405180910390f35b6106b360048036038101906106ae91906133ca565b612ab0565b005b3480156106c157600080fd5b506106ca612bbb565b6040516106d7919061368c565b60405180910390f35b3480156106ec57600080fd5b50610707600480360381019061070291906133ca565b612c05565b60405161071693929190613b79565b60405180910390f35b60008054906101000a900473ffffffffffffffffffffffffffffffffffffffff1673ffffffffffffffffffffffffffffffffffffffff163373ffffffffffffffffffffffffffffffffffffffff16146107ad576040517f08c379a00000000000000000000000000000000000000000000000000000000081526004016107a490613c70565b60405180910390fd5b600085426040516020016107c2929190613cf9565b6040516020818303038152906040528051906020012060001c90506000600360008381526020019081526020016000209050818160000181905550868160010160006101000a81548173ffffffffffffffffffffffffffffffffffffffff021916908373ffffffffffffffffffffffffffffffffffffffff160217905550858160020190816108519190613f31565b508481600301908051906020019061086a929190612d3f565b5083816004019080519060200190610883929190612d3f565b50828160050190816108959190613f31565b50428160060181905550600460008873ffffffffffffffffffffffffffffffffffffffff1673ffffffffffffffffffffffffffffffffffffffff1681526020019081526020016000208290806001815401808255809150506001900390600052602060002001600090919091909150558673ffffffffffffffffffffffffffffffffffffffff167f9158c4b8b7fff567a0a975ca3187331e08a50d8f2a1f04e986ac1e6e86e8212c8360405161094b919061368c565b60405180910390a250505050505050565b60006003600087815260200190815260200160002060000154036109b5576040517f08c379a00000000000000000000000000000000000000000000000000000000081526004016109ac9061404f565b60405180910390fd5b3373ffffffffffffffffffffffffffffffffffffffff166003600087815260200190815260200160002060010160009054906101000a900473ffffffffffffffffffffffffffffffffffffffff1673ffffffffffffffffffffffffffffffffffffffff1614610a59576040517f08c379a0000000000000000000000000000000000000000000000000000000008152600401610a50906140e1565b60405180910390fd5b600060036000878152602001908152602001600020905084816002019081610a819190613f31565b5083816003019080519060200190610a9a929190612d3f565b5082816004019080519060200190610ab3929190612d3f565b5081816005019081610ac59190613f31565b503373ffffffffffffffffffffffffffffffffffffffff167f9b8f2dd4f0b06f4b26a2a8b6724772b72e9c37b926cab4d38ae0ff36f9faadf287604051610b0c919061368c565b60405180910390a2505050505050565b60008054906101000a900473ffffffffffffffffffffffffffffffffffffffff1673ffffffffffffffffffffffffffffffffffffffff163373ffffffffffffffffffffffffffffffffffffffff1614610baa576040517f08c379a0000000000000000000000000000000000000000000000000000000008152600401610ba190613c70565b60405180910390fd5b6000858542604051602001610bc19392919061413d565b6040516020818303038152906040528051906020012060001c90506040518060c001604052808281526020018781526020018681526020018581526020018481526020018381525060016000838152602001908152602001600020600082015181600001556020820151816001019081610c3b9190613f31565b506040820151816002019081610c519190613f31565b506060820151816003019081610c679190613f31565b506080820151816004019081610c7d9190613f31565b5060a0820151816005019081610c939190613f31565b509050507fdd80b44c858b1da56e0c7431f8556fce71b1ca755eeff5ab0649acca26c23041818787878787604051610cd09695949392919061383d565b60405180910390a1505050505050565b60008060608060008060056000888152602001908152602001600020905080600001548160010160009054906101000a900473ffffffffffffffffffffffffffffffffffffffff1682600201836003018460040154828054610d4190613d54565b80601f0160208091040260200160405190810160405280929190818152602001828054610d6d90613d54565b8015610dba5780601f10610d8f57610100808354040283529160200191610dba565b820191906000526020600020905b815481529060010190602001808311610d9d57829003601f168201915b50505050509250818054610dcd90613d54565b80601f0160208091040260200160405190810160405280929190818152602001828054610df990613d54565b8015610e465780601f10610e1b57610100808354040283529160200191610e46565b820191906000526020600020905b815481529060010190602001808311610e2957829003601f168201915b50505050509150955095509550955095505091939590929450565b600080606080606080600080600360008a8152602001908152602001600020905080600001548160010160009054906101000a900473ffffffffffffffffffffffffffffffffffffffff1682600301836004018460020185600501866006015484805480602002602001604051908101604052809291908181526020016000905b82821015610f8e578382906000526020600020018054610f0190613d54565b80601f0160208091040260200160405190810160405280929190818152602001828054610f2d90613d54565b8015610f7a5780601f10610f4f57610100808354040283529160200191610f7a565b820191906000526020600020905b815481529060010190602001808311610f5d57829003601f168201915b505050505081526020019060010190610ee2565b50505050945083805480602002602001604051908101604052809291908181526020016000905b82821015611061578382906000526020600020018054610fd490613d54565b80601f016020809104026020016040519081016040528092919081815260200182805461100090613d54565b801561104d5780601f106110225761010080835404028352916020019161104d565b820191906000526020600020905b81548152906001019060200180831161103057829003601f168201915b505050505081526020019060010190610fb5565b50505050935082805461107390613d54565b80601f016020809104026020016040519081016040528092919081815260200182805461109f90613d54565b80156110ec5780601f106110c1576101008083540402835291602001916110ec565b820191906000526020600020905b8154815290600101906020018083116110cf57829003601f168201915b505050505092508180546110ff90613d54565b80601f016020809104026020016040519081016040528092919081815260200182805461112b90613d54565b80156111785780601f1061114d57610100808354040283529160200191611178565b820191906000526020600020905b81548152906001019060200180831161115b57829003601f168201915b50505050509150975097509750975097509750975050919395979092949650565b662386f26fc1000081565b6000662386f26fc100003410156111f0576040517f08c379a00000000000000000000000000000000000000000000000000000000081526004016111e7906141e4565b60405180910390fd5b600033834260405160200161120793929190614204565b6040516020818303038152906040528051906020012060001c90506040518060a001604052808281526020013373ffffffffffffffffffffffffffffffffffffffff16815260200184815260200160405180602001604052806000815250815260200142815250600560008381526020019081526020016000206000820151816000015560208201518160010160006101000a81548173ffffffffffffffffffffffffffffffffffffffff021916908373ffffffffffffffffffffffffffffffffffffffff16021790555060408201518160020190816112e79190613f31565b5060608201518160030190816112fd9190613f31565b5060808201518160040155905050600660003373ffffffffffffffffffffffffffffffffffffffff1673ffffffffffffffffffffffffffffffffffffffff1681526020019081526020016000208190806001815401808255809150506001900390600052602060002001600090919091909150553373ffffffffffffffffffffffffffffffffffffffff167ff7f80f9a6b3a7339f7b7ef8003834fcaaa597afc805263087e4f3d648b645e1b82856040516113b992919061423d565b60405180910390a280915050919050565b60008054906101000a900473ffffffffffffffffffffffffffffffffffffffff1673ffffffffffffffffffffffffffffffffffffffff163373ffffffffffffffffffffffffffffffffffffffff1614611458576040517f08c379a000000000000000000000000000000000000000000000000000000000815260040161144f90613c70565b60405180910390fd5b60006003600087815260200190815260200160002060000154036114b1576040517f08c379a00000000000000000000000000000000000000000000000000000000081526004016114a89061404f565b60405180910390fd5b6000600360008781526020019081526020016000209050848160020190816114d99190613f31565b50838160030190805190602001906114f2929190612d3f565b508281600401908051906020019061150b929190612d3f565b508181600501908161151d9190613f31565b508060010160009054906101000a900473ffffffffffffffffffffffffffffffffffffffff1673ffffffffffffffffffffffffffffffffffffffff167f9b8f2dd4f0b06f4b26a2a8b6724772b72e9c37b926cab4d38ae0ff36f9faadf287604051611588919061368c565b60405180910390a2505050505050565b60008054906101000a900473ffffffffffffffffffffffffffffffffffffffff1673ffffffffffffffffffffffffffffffffffffffff163373ffffffffffffffffffffffffffffffffffffffff1614611626576040517f08c379a000000000000000000000000000000000000000000000000000000000815260040161161d90613c70565b60405180910390fd5b60008054906101000a900473ffffffffffffffffffffffffffffffffffffffff1673ffffffffffffffffffffffffffffffffffffffff166108fc479081150290604051600060405180830381858888f1935050505015801561168c573d6000803e3d6000fd5b50565b600460205281600052604060002081815481106116ab57600080fd5b90600052602060002001600091509150505481565b6000600460008373ffffffffffffffffffffffffffffffffffffffff1673ffffffffffffffffffffffffffffffffffffffff168152602001908152602001600020805490509050919050565b6060600660008373ffffffffffffffffffffffffffffffffffffffff1673ffffffffffffffffffffffffffffffffffffffff16815260200190815260200160002080548060200260200160405190810160405280929190818152602001828054801561179757602002820191906000526020600020905b815481526020019060010190808311611783575b50505050509050919050565b60036020528060005260406000206000915090508060000154908060010160009054906101000a900473ffffffffffffffffffffffffffffffffffffffff16908060020180546117f290613d54565b80601f016020809104026020016040519081016040528092919081815260200182805461181e90613d54565b801561186b5780601f106118405761010080835404028352916020019161186b565b820191906000526020600020905b81548152906001019060200180831161184e57829003601f168201915b50505050509080600501805461188090613d54565b80601f01602080910402602001604051908101604052809291908181526020018280546118ac90613d54565b80156118f95780601f106118ce576101008083540402835291602001916118f9565b820191906000526020600020905b8154815290600101906020018083116118dc57829003601f168201915b5050505050908060060154905085565b600160205280600052604060002060009150905080600001549080600101805461193290613d54565b80601f016020809104026020016040519081016040528092919081815260200182805461195e90613d54565b80156119ab5780601f10611980576101008083540402835291602001916119ab565b820191906000526020600020905b81548152906001019060200180831161198e57829003601f168201915b5050505050908060020180546119c090613d54565b80601f01602080910402602001604051908101604052809291908181526020018280546119ec90613d54565b8015611a395780601f10611a0e57610100808354040283529160200191611a39565b820191906000526020600020905b815481529060010190602001808311611a1c57829003601f168201915b505050505090806003018054611a4e90613d54565b80601f0160208091040260200160405190810160405280929190818152602001828054611a7a90613d54565b8015611ac75780601f10611a9c57610100808354040283529160200191611ac7565b820191906000526020600020905b815481529060010190602001808311611aaa57829003601f168201915b505050505090806004018054611adc90613d54565b80601f0160208091040260200160405190810160405280929190818152602001828054611b0890613d54565b8015611b555780601f10611b2a57610100808354040283529160200191611b55565b820191906000526020600020905b815481529060010190602001808311611b3857829003601f168201915b505050505090806005018054611b6a90613d54565b80601f0160208091040260200160405190810160405280929190818152602001828054611b9690613d54565b8015611be35780601f10611bb857610100808354040283529160200191611be3565b820191906000526020600020905b815481529060010190602001808311611bc657829003601f168201915b5050505050905086565b60008054906101000a900473ffffffffffffffffffffffffffffffffffffffff1681565b60008054906101000a900473ffffffffffffffffffffffffffffffffffffffff1673ffffffffffffffffffffffffffffffffffffffff163373ffffffffffffffffffffffffffffffffffffffff1614611c9f576040517f08c379a0000000000000000000000000000000000000000000000000000000008152600401611c9690613c70565b60405180910390fd5b6000600560008481526020019081526020016000206000015403611cf8576040517f08c379a0000000000000000000000000000000000000000000000000000000008152600401611cef906142b9565b60405180910390fd5b80600560008481526020019081526020016000206003019081611d1b9190613f31565b505050565b60066020528160005260406000208181548110611d3c57600080fd5b90600052602060002001600091509150505481565b60003342604051602001611d66929190613cf9565b6040516020818303038152906040528051906020012060001c90506000600360008381526020019081526020016000209050818160000181905550338160010160006101000a81548173ffffffffffffffffffffffffffffffffffffffff021916908373ffffffffffffffffffffffffffffffffffffffff16021790555085816002019081611df59190613f31565b5084816003019080519060200190611e0e929190612d3f565b5083816004019080519060200190611e27929190612d3f565b5082816005019081611e399190613f31565b50428160060181905550600460003373ffffffffffffffffffffffffffffffffffffffff1673ffffffffffffffffffffffffffffffffffffffff1681526020019081526020016000208290806001815401808255809150506001900390600052602060002001600090919091909150553373ffffffffffffffffffffffffffffffffffffffff167f9158c4b8b7fff567a0a975ca3187331e08a50d8f2a1f04e986ac1e6e86e8212c83604051611eef919061368c565b60405180910390a2505050505050565b60056020528060005260406000206000915090508060000154908060010160009054906101000a900473ffffffffffffffffffffffffffffffffffffffff1690806002018054611f4e90613d54565b80601f0160208091040260200160405190810160405280929190818152602001828054611f7a90613d54565b8015611fc75780601f10611f9c57610100808354040283529160200191611fc7565b820191906000526020600020905b815481529060010190602001808311611faa57829003601f168201915b505050505090806003018054611fdc90613d54565b80601f016020809104026020016040519081016040528092919081815260200182805461200890613d54565b80156120555780601f1061202a57610100808354040283529160200191612055565b820191906000526020600020905b81548152906001019060200180831161203857829003601f168201915b5050505050908060040154905085565b60008054906101000a900473ffffffffffffffffffffffffffffffffffffffff1673ffffffffffffffffffffffffffffffffffffffff163373ffffffffffffffffffffffffffffffffffffffff16146120f3576040517f08c379a00000000000000000000000000000000000000000000000000000000081526004016120ea90613c70565b60405180910390fd5b600083834260405160200161210a9392919061413d565b6040516020818303038152906040528051906020012060001c90506000600260008381526020019081526020016000209050818160000181905550848160010190816121569190613f31565b50838160020190816121689190613f31565b5060005b835181101561225a576001600085838151811061218c5761218b6142d9565b5b602002602001015181526020019081526020016000208260030160008684815181106121bb576121ba6142d9565b5b6020026020010151815260200190815260200160002060008201548160000155600182018160010190816121ef919061431e565b5060028201816002019081612204919061431e565b5060038201816003019081612219919061431e565b506004820181600401908161222e919061431e565b5060058201816005019081612243919061431e565b50905050808061225290614435565b91505061216c565b507fb4c05240c9123bc1e0c4f8d3f24c7576a172360a19d1f98b4a97cd375842263182868660405161228e93929190613b79565b60405180910390a15050505050565b60006060806000600260008681526020019081526020016000209050806000015481600101826002018180546122d290613d54565b80601f01602080910402602001604051908101604052809291908181526020018280546122fe90613d54565b801561234b5780601f106123205761010080835404028352916020019161234b565b820191906000526020600020905b81548152906001019060200180831161232e57829003601f168201915b5050505050915080805461235e90613d54565b80601f016020809104026020016040519081016040528092919081815260200182805461238a90613d54565b80156123d75780601f106123ac576101008083540402835291602001916123d7565b820191906000526020600020905b8154815290600101906020018083116123ba57829003601f168201915b50505050509050935093509350509193909250565b600060608060608060606000600260008a8152602001908152602001600020600301600089815260200190815260200160002090508060000154816001018260020183600301846004018560050184805461244690613d54565b80601f016020809104026020016040519081016040528092919081815260200182805461247290613d54565b80156124bf5780601f10612494576101008083540402835291602001916124bf565b820191906000526020600020905b8154815290600101906020018083116124a257829003601f168201915b505050505094508380546124d290613d54565b80601f01602080910402602001604051908101604052809291908181526020018280546124fe90613d54565b801561254b5780601f106125205761010080835404028352916020019161254b565b820191906000526020600020905b81548152906001019060200180831161252e57829003601f168201915b5050505050935082805461255e90613d54565b80601f016020809104026020016040519081016040528092919081815260200182805461258a90613d54565b80156125d75780601f106125ac576101008083540402835291602001916125d7565b820191906000526020600020905b8154815290600101906020018083116125ba57829003601f168201915b505050505092508180546125ea90613d54565b80601f016020809104026020016040519081016040528092919081815260200182805461261690613d54565b80156126635780601f1061263857610100808354040283529160200191612663565b820191906000526020600020905b81548152906001019060200180831161264657829003601f168201915b5050505050915080805461267690613d54565b80601f01602080910402602001604051908101604052809291908181526020018280546126a290613d54565b80156126ef5780601f106126c4576101008083540402835291602001916126ef565b820191906000526020600020905b8154815290600101906020018083116126d257829003601f168201915b50505050509050965096509650965096509650509295509295509295565b6000606080606080606060006001600089815260200190815260200160002090508060000154816001018260020183600301846004018560050184805461275390613d54565b80601f016020809104026020016040519081016040528092919081815260200182805461277f90613d54565b80156127cc5780601f106127a1576101008083540402835291602001916127cc565b820191906000526020600020905b8154815290600101906020018083116127af57829003601f168201915b505050505094508380546127df90613d54565b80601f016020809104026020016040519081016040528092919081815260200182805461280b90613d54565b80156128585780601f1061282d57610100808354040283529160200191612858565b820191906000526020600020905b81548152906001019060200180831161283b57829003601f168201915b5050505050935082805461286b90613d54565b80601f016020809104026020016040519081016040528092919081815260200182805461289790613d54565b80156128e45780601f106128b9576101008083540402835291602001916128e4565b820191906000526020600020905b8154815290600101906020018083116128c757829003601f168201915b505050505092508180546128f790613d54565b80601f016020809104026020016040519081016040528092919081815260200182805461292390613d54565b80156129705780601f1061294557610100808354040283529160200191612970565b820191906000526020600020905b81548152906001019060200180831161295357829003601f168201915b5050505050915080805461298390613d54565b80601f01602080910402602001604051908101604052809291908181526020018280546129af90613d54565b80156129fc5780601f106129d1576101008083540402835291602001916129fc565b820191906000526020600020905b8154815290600101906020018083116129df57829003601f168201915b505050505090509650965096509650965096505091939550919395565b6060600460008373ffffffffffffffffffffffffffffffffffffffff1673ffffffffffffffffffffffffffffffffffffffff168152602001908152602001600020805480602002602001604051908101604052809291908181526020018280548015612aa457602002820191906000526020600020905b815481526020019060010190808311612a90575b50505050509050919050565b662386f26fc10000341015612afa576040517f08c379a0000000000000000000000000000000000000000000000000000000008152600401612af1906144c9565b60405180910390fd5b6000600260008381526020019081526020016000206000015403612b53576040517f08c379a0000000000000000000000000000000000000000000000000000000008152600401612b4a90614535565b60405180910390fd5b7ffb33bc41b91b9a701b4d0981ddc8499a6afe3b03439ac8bb59fb01ee066b2385816002600084815260200190815260200160002060010160026000858152602001908152602001600020600201604051612bb0939291906145d9565b60405180910390a150565b6000600460003373ffffffffffffffffffffffffffffffffffffffff1673ffffffffffffffffffffffffffffffffffffffff16815260200190815260200160002080549050905090565b6002602052806000526040600020600091509050806000015490806001018054612c2e90613d54565b80601f0160208091040260200160405190810160405280929190818152602001828054612c5a90613d54565b8015612ca75780601f10612c7c57610100808354040283529160200191612ca7565b820191906000526020600020905b815481529060010190602001808311612c8a57829003601f168201915b505050505090806002018054612cbc90613d54565b80601f0160208091040260200160405190810160405280929190818152602001828054612ce890613d54565b8015612d355780601f10612d0a57610100808354040283529160200191612d35565b820191906000526020600020905b815481529060010190602001808311612d1857829003601f168201915b5050505050905083565b828054828255906000526020600020908101928215612d87579160200282015b82811115612d86578251829081612d769190613f31565b5091602001919060010190612d5f565b5b509050612d949190612d98565b5090565b5b80821115612db85760008181612daf9190612dbc565b50600101612d99565b5090565b508054612dc890613d54565b6000825580601f10612dda5750612df9565b601f016020900490600052602060002090810190612df89190612dfc565b5b50565b5b80821115612e15576000816000905550600101612dfd565b5090565b6000604051905090565b600080fd5b600080fd5b600073ffffffffffffffffffffffffffffffffffffffff82169050919050565b6000612e5882612e2d565b9050919050565b612e6881612e4d565b8114612e7357600080fd5b50565b600081359050612e8581612e5f565b92915050565b600080fd5b600080fd5b6000601f19601f8301169050919050565b7f4e487b7100000000000000000000000000000000000000000000000000000000600052604160045260246000fd5b612ede82612e95565b810181811067ffffffffffffffff82111715612efd57612efc612ea6565b5b80604052505050565b6000612f10612e19565b9050612f1c8282612ed5565b919050565b600067ffffffffffffffff821115612f3c57612f3b612ea6565b5b612f4582612e95565b9050602081019050919050565b82818337600083830152505050565b6000612f74612f6f84612f21565b612f06565b905082815260208101848484011115612f9057612f8f612e90565b5b612f9b848285612f52565b509392505050565b600082601f830112612fb857612fb7612e8b565b5b8135612fc8848260208601612f61565b91505092915050565b600067ffffffffffffffff821115612fec57612feb612ea6565b5b602082029050602081019050919050565b600080fd5b600061301561301084612fd1565b612f06565b9050808382526020820190506020840283018581111561303857613037612ffd565b5b835b8181101561307f57803567ffffffffffffffff81111561305d5761305c612e8b565b5b80860161306a8982612fa3565b8552602085019450505060208101905061303a565b5050509392505050565b600082601f83011261309e5761309d612e8b565b5b81356130ae848260208601613002565b91505092915050565b600080600080600060a086880312156130d3576130d2612e23565b5b60006130e188828901612e76565b955050602086013567ffffffffffffffff81111561310257613101612e28565b5b61310e88828901612fa3565b945050604086013567ffffffffffffffff81111561312f5761312e612e28565b5b61313b88828901613089565b935050606086013567ffffffffffffffff81111561315c5761315b612e28565b5b61316888828901613089565b925050608086013567ffffffffffffffff81111561318957613188612e28565b5b61319588828901612fa3565b9150509295509295909350565b6000819050919050565b6131b5816131a2565b81146131c057600080fd5b50565b6000813590506131d2816131ac565b92915050565b600080600080600060a086880312156131f4576131f3612e23565b5b6000613202888289016131c3565b955050602086013567ffffffffffffffff81111561322357613222612e28565b5b61322f88828901612fa3565b945050604086013567ffffffffffffffff8111156132505761324f612e28565b5b61325c88828901613089565b935050606086013567ffffffffffffffff81111561327d5761327c612e28565b5b61328988828901613089565b925050608086013567ffffffffffffffff8111156132aa576132a9612e28565b5b6132b688828901612fa3565b9150509295509295909350565b600080600080600060a086880312156132df576132de612e23565b5b600086013567ffffffffffffffff8111156132fd576132fc612e28565b5b61330988828901612fa3565b955050602086013567ffffffffffffffff81111561332a57613329612e28565b5b61333688828901612fa3565b945050604086013567ffffffffffffffff81111561335757613356612e28565b5b61336388828901612fa3565b935050606086013567ffffffffffffffff81111561338457613383612e28565b5b61339088828901612fa3565b925050608086013567ffffffffffffffff8111156133b1576133b0612e28565b5b6133bd88828901612fa3565b9150509295509295909350565b6000602082840312156133e0576133df612e23565b5b60006133ee848285016131c3565b91505092915050565b613400816131a2565b82525050565b61340f81612e4d565b82525050565b600081519050919050565b600082825260208201905092915050565b60005b8381101561344f578082015181840152602081019050613434565b60008484015250505050565b600061346682613415565b6134708185613420565b9350613480818560208601613431565b61348981612e95565b840191505092915050565b600060a0820190506134a960008301886133f7565b6134b66020830187613406565b81810360408301526134c8818661345b565b905081810360608301526134dc818561345b565b90506134eb60808301846133f7565b9695505050505050565b600081519050919050565b600082825260208201905092915050565b6000819050602082019050919050565b600082825260208201905092915050565b600061353d82613415565b6135478185613521565b9350613557818560208601613431565b61356081612e95565b840191505092915050565b60006135778383613532565b905092915050565b6000602082019050919050565b6000613597826134f5565b6135a18185613500565b9350836020820285016135b385613511565b8060005b858110156135ef57848403895281516135d0858261356b565b94506135db8361357f565b925060208a019950506001810190506135b7565b50829750879550505050505092915050565b600060e082019050613616600083018a6133f7565b6136236020830189613406565b8181036040830152613635818861358c565b90508181036060830152613649818761358c565b9050818103608083015261365d818661345b565b905081810360a0830152613671818561345b565b905061368060c08301846133f7565b98975050505050505050565b60006020820190506136a160008301846133f7565b92915050565b6000602082840312156136bd576136bc612e23565b5b600082013567ffffffffffffffff8111156136db576136da612e28565b5b6136e784828501612fa3565b91505092915050565b6000806040838503121561370757613706612e23565b5b600061371585828601612e76565b9250506020613726858286016131c3565b9150509250929050565b60006020828403121561374657613745612e23565b5b600061375484828501612e76565b91505092915050565b600081519050919050565b600082825260208201905092915050565b6000819050602082019050919050565b613792816131a2565b82525050565b60006137a48383613789565b60208301905092915050565b6000602082019050919050565b60006137c88261375d565b6137d28185613768565b93506137dd83613779565b8060005b8381101561380e5781516137f58882613798565b9750613800836137b0565b9250506001810190506137e1565b5085935050505092915050565b6000602082019050818103600083015261383581846137bd565b905092915050565b600060c08201905061385260008301896133f7565b8181036020830152613864818861345b565b90508181036040830152613878818761345b565b9050818103606083015261388c818661345b565b905081810360808301526138a0818561345b565b905081810360a08301526138b4818461345b565b9050979650505050505050565b60006020820190506138d66000830184613406565b92915050565b600080604083850312156138f3576138f2612e23565b5b6000613901858286016131c3565b925050602083013567ffffffffffffffff81111561392257613921612e28565b5b61392e85828601612fa3565b9150509250929050565b6000806000806080858703121561395257613951612e23565b5b600085013567ffffffffffffffff8111156139705761396f612e28565b5b61397c87828801612fa3565b945050602085013567ffffffffffffffff81111561399d5761399c612e28565b5b6139a987828801613089565b935050604085013567ffffffffffffffff8111156139ca576139c9612e28565b5b6139d687828801613089565b925050606085013567ffffffffffffffff8111156139f7576139f6612e28565b5b613a0387828801612fa3565b91505092959194509250565b600067ffffffffffffffff821115613a2a57613a29612ea6565b5b602082029050602081019050919050565b6000613a4e613a4984613a0f565b612f06565b90508083825260208201905060208402830185811115613a7157613a70612ffd565b5b835b81811015613a9a5780613a8688826131c3565b845260208401935050602081019050613a73565b5050509392505050565b600082601f830112613ab957613ab8612e8b565b5b8135613ac9848260208601613a3b565b91505092915050565b600080600060608486031215613aeb57613aea612e23565b5b600084013567ffffffffffffffff811115613b0957613b08612e28565b5b613b1586828701612fa3565b935050602084013567ffffffffffffffff811115613b3657613b35612e28565b5b613b4286828701612fa3565b925050604084013567ffffffffffffffff811115613b6357613b62612e28565b5b613b6f86828701613aa4565b9150509250925092565b6000606082019050613b8e60008301866133f7565b8181036020830152613ba0818561345b565b90508181036040830152613bb4818461345b565b9050949350505050565b60008060408385031215613bd557613bd4612e23565b5b6000613be3858286016131c3565b9250506020613bf4858286016131c3565b9150509250929050565b7f4f6e6c7920746865206f776e65722063616e2063616c6c20746869732066756e60008201527f6374696f6e000000000000000000000000000000000000000000000000000000602082015250565b6000613c5a602583613420565b9150613c6582613bfe565b604082019050919050565b60006020820190508181036000830152613c8981613c4d565b9050919050565b60008160601b9050919050565b6000613ca882613c90565b9050919050565b6000613cba82613c9d565b9050919050565b613cd2613ccd82612e4d565b613caf565b82525050565b6000819050919050565b613cf3613cee826131a2565b613cd8565b82525050565b6000613d058285613cc1565b601482019150613d158284613ce2565b6020820191508190509392505050565b7f4e487b7100000000000000000000000000000000000000000000000000000000600052602260045260246000fd5b60006002820490506001821680613d6c57607f821691505b602082108103613d7f57613d7e613d25565b5b50919050565b60008190508160005260206000209050919050565b60006020601f8301049050919050565b600082821b905092915050565b600060088302613de77fffffffffffffffffffffffffffffffffffffffffffffffffffffffffffffffff82613daa565b613df18683613daa565b95508019841693508086168417925050509392505050565b6000819050919050565b6000613e2e613e29613e24846131a2565b613e09565b6131a2565b9050919050565b6000819050919050565b613e4883613e13565b613e5c613e5482613e35565b848454613db7565b825550505050565b600090565b613e71613e64565b613e7c818484613e3f565b505050565b5b81811015613ea057613e95600082613e69565b600181019050613e82565b5050565b601f821115613ee557613eb681613d85565b613ebf84613d9a565b81016020851015613ece578190505b613ee2613eda85613d9a565b830182613e81565b50505b505050565b600082821c905092915050565b6000613f0860001984600802613eea565b1980831691505092915050565b6000613f218383613ef7565b9150826002028217905092915050565b613f3a82613415565b67ffffffffffffffff811115613f5357613f52612ea6565b5b613f5d8254613d54565b613f68828285613ea4565b600060209050601f831160018114613f9b5760008415613f89578287015190505b613f938582613f15565b865550613ffb565b601f198416613fa986613d85565b60005b82811015613fd157848901518255600182019150602085019450602081019050613fac565b86831015613fee5784890151613fea601f891682613ef7565b8355505b6001600288020188555050505b505050505050565b7f53757276657920646f6573206e6f742065786973740000000000000000000000600082015250565b6000614039601583613420565b915061404482614003565b602082019050919050565b600060208201905081810360008301526140688161402c565b9050919050565b7f4e6f7420617574686f72697a656420746f20757064617465207468697320737560008201527f7276657900000000000000000000000000000000000000000000000000000000602082015250565b60006140cb602483613420565b91506140d68261406f565b604082019050919050565b600060208201905081810360008301526140fa816140be565b9050919050565b600081905092915050565b600061411782613415565b6141218185614101565b9350614131818560208601613431565b80840191505092915050565b6000614149828661410c565b9150614155828561410c565b91506141618284613ce2565b602082019150819050949350505050565b7f496e73756666696369656e74207061796d656e742e2054686520636f7374206960008201527f7320302e3031204554482e000000000000000000000000000000000000000000602082015250565b60006141ce602b83613420565b91506141d982614172565b604082019050919050565b600060208201905081810360008301526141fd816141c1565b9050919050565b60006142108286613cc1565b601482019150614220828561410c565b915061422c8284613ce2565b602082019150819050949350505050565b600060408201905061425260008301856133f7565b8181036020830152614264818461345b565b90509392505050565b7f47656e657261746564207061746820646f6573206e6f74206578697374000000600082015250565b60006142a3601d83613420565b91506142ae8261426d565b602082019050919050565b600060208201905081810360008301526142d281614296565b9050919050565b7f4e487b7100000000000000000000000000000000000000000000000000000000600052603260045260246000fd5b60008154905061431781613d54565b9050919050565b81810361432c575050614404565b61433582614308565b67ffffffffffffffff81111561434e5761434d612ea6565b5b6143588254613d54565b614363828285613ea4565b6000601f8311600181146143925760008415614380578287015490505b61438a8582613f15565b8655506143fd565b601f1984166143a087613d85565b96506143ab86613d85565b60005b828110156143d3578489015482556001820191506001850194506020810190506143ae565b868310156143f057848901546143ec601f891682613ef7565b8355505b6001600288020188555050505b5050505050505b565b7f4e487b7100000000000000000000000000000000000000000000000000000000600052601160045260246000fd5b6000614440826131a2565b91507fffffffffffffffffffffffffffffffffffffffffffffffffffffffffffffffff820361447257614471614406565b5b600182019050919050565b7f596f75206d75737420706179206174206c6561737420302e3031206574686572600082015250565b60006144b3602083613420565b91506144be8261447d565b602082019050919050565b600060208201905081810360008301526144e2816144a6565b9050919050565b7f5061746820646f6573206e6f7420657869737400000000000000000000000000600082015250565b600061451f601383613420565b915061452a826144e9565b602082019050919050565b6000602082019050818103600083015261454e81614512565b9050919050565b6000815461456281613d54565b61456c8186613420565b94506001821660008114614587576001811461459d576145d0565b60ff1983168652811515602002860193506145d0565b6145a685613d85565b60005b838110156145c8578154818901526001820191506020810190506145a9565b808801955050505b50505092915050565b60006060820190506145ee60008301866133f7565b81810360208301526146008185614555565b905081810360408301526146148184614555565b905094935050505056fea26469706673582212202e185317f0086568db3b5e40717830f710b9acd06fca42990c0ff78f906f70c864736f6c63430008130033",
  "linkReferences": {},
  "deployedLinkReferences": {}
}