{
  "_format": "hh-sol-artifact-1",
  "contractName": "Sufle",
  "sourceName": "contracts/Sufle.sol",
  "abi": [
    {
      "inputs": [],
      "stateMutability": "nonpayable",
      "type": "constructor"
    },
    {
      "anonymous": false,
      "inputs": [
        {
          "indexed": false,
          "internalType": "uint256",
          "name": "pathId",
          "type": "uint256"
        },
        {
          "indexed": true,
          "internalType": "address",
          "name": "creator",
          "type": "address"
        },
        {
          "indexed": false,
          "internalType": "string",
          "name": "description",
          "type": "string"
        }
      ],
      "name": "AIPathGenerated",
      "type": "event"
    },
    {
      "anonymous": false,
      "inputs": [
        {
          "indexed": false,
          "internalType": "uint256",
          "name": "pathId",
          "type": "uint256"
        },
        {
          "indexed": false,
          "internalType": "string",
          "name": "title",
          "type": "string"
        },
        {
          "indexed": false,
          "internalType": "string",
          "name": "description",
          "type": "string"
        }
      ],
      "name": "GeneratedPath",
      "type": "event"
    },
    {
      "anonymous": false,
      "inputs": [
        {
          "indexed": false,
          "internalType": "uint256",
          "name": "pathId",
          "type": "uint256"
        },
        {
          "indexed": true,
          "internalType": "address",
          "name": "user",
          "type": "address"
        }
      ],
      "name": "PathCompleted",
      "type": "event"
    },
    {
      "anonymous": false,
      "inputs": [
        {
          "indexed": false,
          "internalType": "uint256",
          "name": "pathId",
          "type": "uint256"
        },
        {
          "indexed": false,
          "internalType": "string",
          "name": "title",
          "type": "string"
        },
        {
          "indexed": false,
          "internalType": "string",
          "name": "description",
          "type": "string"
        }
      ],
      "name": "PathCreated",
      "type": "event"
    },
    {
      "anonymous": false,
      "inputs": [
        {
          "indexed": true,
          "internalType": "address",
          "name": "user",
          "type": "address"
        },
        {
          "indexed": false,
          "internalType": "uint256",
          "name": "amount",
          "type": "uint256"
        }
      ],
      "name": "RewardSent",
      "type": "event"
    },
    {
      "anonymous": false,
      "inputs": [
        {
          "indexed": false,
          "internalType": "uint256",
          "name": "surveyId",
          "type": "uint256"
        },
        {
          "indexed": true,
          "internalType": "address",
          "name": "userAddress",
          "type": "address"
        }
      ],
      "name": "SurveyCreated",
      "type": "event"
    },
    {
      "anonymous": false,
      "inputs": [
        {
          "indexed": false,
          "internalType": "uint256",
          "name": "surveyId",
          "type": "uint256"
        },
        {
          "indexed": true,
          "internalType": "address",
          "name": "userAddress",
          "type": "address"
        }
      ],
      "name": "SurveyUpdated",
      "type": "event"
    },
    {
      "anonymous": false,
      "inputs": [
        {
          "indexed": false,
          "internalType": "uint256",
          "name": "pathId",
          "type": "uint256"
        },
        {
          "indexed": false,
          "internalType": "uint256",
          "name": "taskId",
          "type": "uint256"
        },
        {
          "indexed": true,
          "internalType": "address",
          "name": "user",
          "type": "address"
        }
      ],
      "name": "TaskCompleted",
      "type": "event"
    },
    {
      "anonymous": false,
      "inputs": [
        {
          "indexed": false,
          "internalType": "uint256",
          "name": "taskId",
          "type": "uint256"
        },
        {
          "indexed": false,
          "internalType": "string",
          "name": "title",
          "type": "string"
        },
        {
          "indexed": false,
          "internalType": "string",
          "name": "description",
          "type": "string"
        },
        {
          "indexed": false,
          "internalType": "string",
          "name": "priority",
          "type": "string"
        },
        {
          "indexed": false,
          "internalType": "string",
          "name": "status",
          "type": "string"
        },
        {
          "indexed": false,
          "internalType": "string",
          "name": "tags",
          "type": "string"
        }
      ],
      "name": "TaskCreated",
      "type": "event"
    },
    {
      "inputs": [],
      "name": "PATH_GENERATION_COST",
      "outputs": [
        {
          "internalType": "uint256",
          "name": "",
          "type": "uint256"
        }
      ],
      "stateMutability": "view",
      "type": "function"
    },
    {
      "inputs": [
        {
          "internalType": "uint256",
          "name": "_pathId",
          "type": "uint256"
        },
        {
          "internalType": "uint256[]",
          "name": "_taskIds",
          "type": "uint256[]"
        }
      ],
      "name": "completePath",
      "outputs": [],
      "stateMutability": "nonpayable",
      "type": "function"
    },
    {
      "inputs": [
        {
          "internalType": "uint256",
          "name": "_pathId",
          "type": "uint256"
        },
        {
          "internalType": "uint256",
          "name": "_taskId",
          "type": "uint256"
        }
      ],
      "name": "completeTask",
      "outputs": [],
      "stateMutability": "nonpayable",
      "type": "function"
    },
    {
      "inputs": [
        {
          "internalType": "uint256",
          "name": "",
          "type": "uint256"
        },
        {
          "internalType": "uint256",
          "name": "",
          "type": "uint256"
        }
      ],
      "name": "completedTasks",
      "outputs": [
        {
          "internalType": "bool",
          "name": "",
          "type": "bool"
        }
      ],
      "stateMutability": "view",
      "type": "function"
    },
    {
      "inputs": [
        {
          "internalType": "string",
          "name": "_title",
          "type": "string"
        },
        {
          "internalType": "string",
          "name": "_description",
          "type": "string"
        },
        {
          "internalType": "uint256[]",
          "name": "_taskIds",
          "type": "uint256[]"
        }
      ],
      "name": "createPath",
      "outputs": [],
      "stateMutability": "nonpayable",
      "type": "function"
    },
    {
      "inputs": [
        {
          "internalType": "address",
          "name": "_userAddress",
          "type": "address"
        },
        {
          "internalType": "string",
          "name": "_occupation",
          "type": "string"
        },
        {
          "internalType": "string[]",
          "name": "_interestedCategories",
          "type": "string[]"
        },
        {
          "internalType": "string[]",
          "name": "_motivations",
          "type": "string[]"
        },
        {
          "internalType": "string",
          "name": "_lifeGoals",
          "type": "string"
        }
      ],
      "name": "createSurveyForUser",
      "outputs": [],
      "stateMutability": "nonpayable",
      "type": "function"
    },
    {
      "inputs": [
        {
          "internalType": "string",
          "name": "_title",
          "type": "string"
        },
        {
          "internalType": "string",
          "name": "_description",
          "type": "string"
        },
        {
          "internalType": "string",
          "name": "_priority",
          "type": "string"
        },
        {
          "internalType": "string",
          "name": "_status",
          "type": "string"
        },
        {
          "internalType": "string",
          "name": "_tags",
          "type": "string"
        }
      ],
      "name": "createTask",
      "outputs": [],
      "stateMutability": "nonpayable",
      "type": "function"
    },
    {
      "inputs": [
        {
          "internalType": "string",
          "name": "_occupation",
          "type": "string"
        },
        {
          "internalType": "string[]",
          "name": "_interestedCategories",
          "type": "string[]"
        },
        {
          "internalType": "string[]",
          "name": "_motivations",
          "type": "string[]"
        },
        {
          "internalType": "string",
          "name": "_lifeGoals",
          "type": "string"
        }
      ],
      "name": "createUserSurvey",
      "outputs": [],
      "stateMutability": "nonpayable",
      "type": "function"
    },
    {
      "inputs": [
        {
          "internalType": "uint256",
          "name": "_id",
          "type": "uint256"
        }
      ],
      "name": "generatePathWithAI",
      "outputs": [],
      "stateMutability": "payable",
      "type": "function"
    },
    {
      "inputs": [
        {
          "internalType": "string",
          "name": "_description",
          "type": "string"
        }
      ],
      "name": "generatePathWithDescription",
      "outputs": [
        {
          "internalType": "uint256",
          "name": "",
          "type": "uint256"
        }
      ],
      "stateMutability": "payable",
      "type": "function"
    },
    {
      "inputs": [
        {
          "internalType": "uint256",
          "name": "",
          "type": "uint256"
        }
      ],
      "name": "generatedAIPaths",
      "outputs": [
        {
          "internalType": "uint256",
          "name": "pathId",
          "type": "uint256"
        },
        {
          "internalType": "address",
          "name": "creator",
          "type": "address"
        },
        {
          "internalType": "string",
          "name": "description",
          "type": "string"
        },
        {
          "internalType": "string",
          "name": "title",
          "type": "string"
        },
        {
          "internalType": "uint256",
          "name": "timestamp",
          "type": "uint256"
        },
        {
          "internalType": "bool",
          "name": "completed",
          "type": "bool"
        }
      ],
      "stateMutability": "view",
      "type": "function"
    },
    {
      "inputs": [],
      "name": "getCurrentUserSurveyCount",
      "outputs": [
        {
          "internalType": "uint256",
          "name": "",
          "type": "uint256"
        }
      ],
      "stateMutability": "view",
      "type": "function"
    },
    {
      "inputs": [
        {
          "internalType": "uint256",
          "name": "_pathId",
          "type": "uint256"
        }
      ],
      "name": "getGeneratedPathInfo",
      "outputs": [
        {
          "internalType": "uint256",
          "name": "pathId",
          "type": "uint256"
        },
        {
          "internalType": "address",
          "name": "creator",
          "type": "address"
        },
        {
          "internalType": "string",
          "name": "description",
          "type": "string"
        },
        {
          "internalType": "string",
          "name": "title",
          "type": "string"
        },
        {
          "internalType": "uint256",
          "name": "timestamp",
          "type": "uint256"
        },
        {
          "internalType": "bool",
          "name": "completed",
          "type": "bool"
        }
      ],
      "stateMutability": "view",
      "type": "function"
    },
    {
      "inputs": [
        {
          "internalType": "uint256",
          "name": "_pathId",
          "type": "uint256"
        }
      ],
      "name": "getPathInfo",
      "outputs": [
        {
          "internalType": "uint256",
          "name": "",
          "type": "uint256"
        },
        {
          "internalType": "string",
          "name": "",
          "type": "string"
        },
        {
          "internalType": "string",
          "name": "",
          "type": "string"
        }
      ],
      "stateMutability": "view",
      "type": "function"
    },
    {
      "inputs": [
        {
          "internalType": "uint256",
          "name": "_pathId",
          "type": "uint256"
        },
        {
          "internalType": "uint256",
          "name": "_taskId",
          "type": "uint256"
        }
      ],
      "name": "getPathTask",
      "outputs": [
        {
          "internalType": "uint256",
          "name": "",
          "type": "uint256"
        },
        {
          "internalType": "string",
          "name": "",
          "type": "string"
        },
        {
          "internalType": "string",
          "name": "",
          "type": "string"
        },
        {
          "internalType": "string",
          "name": "",
          "type": "string"
        },
        {
          "internalType": "string",
          "name": "",
          "type": "string"
        },
        {
          "internalType": "string",
          "name": "",
          "type": "string"
        }
      ],
      "stateMutability": "view",
      "type": "function"
    },
    {
      "inputs": [
        {
          "internalType": "uint256",
          "name": "_surveyId",
          "type": "uint256"
        }
      ],
      "name": "getSurveyInfo",
      "outputs": [
        {
          "internalType": "uint256",
          "name": "",
          "type": "uint256"
        },
        {
          "internalType": "address",
          "name": "",
          "type": "address"
        },
        {
          "internalType": "string[]",
          "name": "",
          "type": "string[]"
        },
        {
          "internalType": "string[]",
          "name": "",
          "type": "string[]"
        },
        {
          "internalType": "string",
          "name": "",
          "type": "string"
        },
        {
          "internalType": "string",
          "name": "",
          "type": "string"
        },
        {
          "internalType": "uint256",
          "name": "",
          "type": "uint256"
        }
      ],
      "stateMutability": "view",
      "type": "function"
    },
    {
      "inputs": [
        {
          "internalType": "uint256",
          "name": "_taskId",
          "type": "uint256"
        }
      ],
      "name": "getTaskInfo",
      "outputs": [
        {
          "internalType": "uint256",
          "name": "",
          "type": "uint256"
        },
        {
          "internalType": "string",
          "name": "",
          "type": "string"
        },
        {
          "internalType": "string",
          "name": "",
          "type": "string"
        },
        {
          "internalType": "string",
          "name": "",
          "type": "string"
        },
        {
          "internalType": "string",
          "name": "",
          "type": "string"
        },
        {
          "internalType": "string",
          "name": "",
          "type": "string"
        }
      ],
      "stateMutability": "view",
      "type": "function"
    },
    {
      "inputs": [
        {
          "internalType": "address",
          "name": "_user",
          "type": "address"
        }
      ],
      "name": "getUserGeneratedPaths",
      "outputs": [
        {
          "internalType": "uint256[]",
          "name": "",
          "type": "uint256[]"
        }
      ],
      "stateMutability": "view",
      "type": "function"
    },
    {
      "inputs": [
        {
          "internalType": "address",
          "name": "_userAddress",
          "type": "address"
        }
      ],
      "name": "getUserSurveyCount",
      "outputs": [
        {
          "internalType": "uint256",
          "name": "",
          "type": "uint256"
        }
      ],
      "stateMutability": "view",
      "type": "function"
    },
    {
      "inputs": [
        {
          "internalType": "address",
          "name": "_userAddress",
          "type": "address"
        }
      ],
      "name": "getUserSurveyIds",
      "outputs": [
        {
          "internalType": "uint256[]",
          "name": "",
          "type": "uint256[]"
        }
      ],
      "stateMutability": "view",
      "type": "function"
    },
    {
      "inputs": [
        {
          "internalType": "uint256",
          "name": "_pathId",
          "type": "uint256"
        },
        {
          "internalType": "uint256",
          "name": "_taskId",
          "type": "uint256"
        }
      ],
      "name": "isTaskCompleted",
      "outputs": [
        {
          "internalType": "bool",
          "name": "",
          "type": "bool"
        }
      ],
      "stateMutability": "view",
      "type": "function"
    },
    {
      "inputs": [],
      "name": "owner",
      "outputs": [
        {
          "internalType": "address",
          "name": "",
          "type": "address"
        }
      ],
      "stateMutability": "view",
      "type": "function"
    },
    {
      "inputs": [
        {
          "internalType": "uint256",
          "name": "",
          "type": "uint256"
        }
      ],
      "name": "paths",
      "outputs": [
        {
          "internalType": "uint256",
          "name": "pathId",
          "type": "uint256"
        },
        {
          "internalType": "string",
          "name": "title",
          "type": "string"
        },
        {
          "internalType": "string",
          "name": "description",
          "type": "string"
        }
      ],
      "stateMutability": "view",
      "type": "function"
    },
    {
      "inputs": [
        {
          "internalType": "uint256",
          "name": "",
          "type": "uint256"
        }
      ],
      "name": "surveys",
      "outputs": [
        {
          "internalType": "uint256",
          "name": "surveyId",
          "type": "uint256"
        },
        {
          "internalType": "address",
          "name": "userAddress",
          "type": "address"
        },
        {
          "internalType": "string",
          "name": "occupation",
          "type": "string"
        },
        {
          "internalType": "string",
          "name": "lifeGoals",
          "type": "string"
        },
        {
          "internalType": "uint256",
          "name": "createdAt",
          "type": "uint256"
        }
      ],
      "stateMutability": "view",
      "type": "function"
    },
    {
      "inputs": [
        {
          "internalType": "uint256",
          "name": "",
          "type": "uint256"
        }
      ],
      "name": "tasks",
      "outputs": [
        {
          "internalType": "uint256",
          "name": "taskId",
          "type": "uint256"
        },
        {
          "internalType": "string",
          "name": "title",
          "type": "string"
        },
        {
          "internalType": "string",
          "name": "description",
          "type": "string"
        },
        {
          "internalType": "string",
          "name": "priority",
          "type": "string"
        },
        {
          "internalType": "string",
          "name": "status",
          "type": "string"
        },
        {
          "internalType": "string",
          "name": "tags",
          "type": "string"
        }
      ],
      "stateMutability": "view",
      "type": "function"
    },
    {
      "inputs": [
        {
          "internalType": "uint256",
          "name": "_pathId",
          "type": "uint256"
        },
        {
          "internalType": "string",
          "name": "_title",
          "type": "string"
        }
      ],
      "name": "updateGeneratedPathTitle",
      "outputs": [],
      "stateMutability": "nonpayable",
      "type": "function"
    },
    {
      "inputs": [
        {
          "internalType": "uint256",
          "name": "_surveyId",
          "type": "uint256"
        },
        {
          "internalType": "string",
          "name": "_occupation",
          "type": "string"
        },
        {
          "internalType": "string[]",
          "name": "_interestedCategories",
          "type": "string[]"
        },
        {
          "internalType": "string[]",
          "name": "_motivations",
          "type": "string[]"
        },
        {
          "internalType": "string",
          "name": "_lifeGoals",
          "type": "string"
        }
      ],
      "name": "updateSurvey",
      "outputs": [],
      "stateMutability": "nonpayable",
      "type": "function"
    },
    {
      "inputs": [
        {
          "internalType": "uint256",
          "name": "_surveyId",
          "type": "uint256"
        },
        {
          "internalType": "string",
          "name": "_occupation",
          "type": "string"
        },
        {
          "internalType": "string[]",
          "name": "_interestedCategories",
          "type": "string[]"
        },
        {
          "internalType": "string[]",
          "name": "_motivations",
          "type": "string[]"
        },
        {
          "internalType": "string",
          "name": "_lifeGoals",
          "type": "string"
        }
      ],
      "name": "updateUserSurvey",
      "outputs": [],
      "stateMutability": "nonpayable",
      "type": "function"
    },
    {
      "inputs": [
        {
          "internalType": "address",
          "name": "",
          "type": "address"
        },
        {
          "internalType": "uint256",
          "name": "",
          "type": "uint256"
        }
      ],
      "name": "userGeneratedPaths",
      "outputs": [
        {
          "internalType": "uint256",
          "name": "",
          "type": "uint256"
        }
      ],
      "stateMutability": "view",
      "type": "function"
    },
    {
      "inputs": [
        {
          "internalType": "address",
          "name": "",
          "type": "address"
        },
        {
          "internalType": "uint256",
          "name": "",
          "type": "uint256"
        }
      ],
      "name": "userSurveys",
      "outputs": [
        {
          "internalType": "uint256",
          "name": "",
          "type": "uint256"
        }
      ],
      "stateMutability": "view",
      "type": "function"
    },
    {
      "inputs": [],
      "name": "withdraw",
      "outputs": [],
      "stateMutability": "nonpayable",
      "type": "function"
    }
  ],
  "bytecode": "0x608060405234801561001057600080fd5b50336000806101000a81548173ffffffffffffffffffffffffffffffffffffffff021916908373ffffffffffffffffffffffffffffffffffffffff1602179055506150d3806100606000396000f3fe6080604052600436106101d85760003560e01c8063790e461c11610102578063b959119211610095578063da4d483811610064578063da4d483814610766578063e5295469146107a3578063f7b53988146107bf578063fc1bcd49146107ea576101d8565b8063b95911921461067a578063c11c5199146106a3578063c528af5c146106e2578063d1a1b99914610724576101d8565b8063a36d0874116100d1578063a36d0874146105a9578063a3b5c3ad146105d2578063abf1fe731461060f578063ac57d60314610638576101d8565b8063790e461c146104be57806386e68b90146104fb5780638d9776721461053c5780638da5cb5b1461057e576101d8565b80633169757a1161017a5780633ccfd60b116101495780633ccfd60b146103f057806368070eaa146104075780636848e91f1461044457806378987bae14610481576101d8565b80633169757a1461032f57806332ea41c81461035a578063367e13e9146103975780633cbe7dc4146103c7576101d8565b8063108c8ae4116101b6578063108c8ae41461025857806314c02d8414610281578063202c7ed2146102aa5780632e8f3413146102ec576101d8565b80630115af73146101dd5780630d5a659b146102065780630f482aa21461022f575b600080fd5b3480156101e957600080fd5b5061020460048036038101906101ff9190613683565b610829565b005b34801561021257600080fd5b5061022d600480360381019061022891906138d3565b610b9b565b005b34801561023b57600080fd5b50610256600480360381019061025191906139be565b610dd8565b005b34801561026457600080fd5b5061027f600480360381019061027a9190613aa9565b610f98565b005b34801561028d57600080fd5b506102a860048036038101906102a39190613ae9565b611126565b005b3480156102b657600080fd5b506102d160048036038101906102cc9190613bf0565b6112ea565b6040516102e396959493929190613cd5565b60405180910390f35b3480156102f857600080fd5b50610313600480360381019061030e9190613bf0565b611481565b6040516103269796959493929190613e50565b60405180910390f35b34801561033b57600080fd5b506103446117b9565b6040516103519190613edb565b60405180910390f35b34801561036657600080fd5b50610381600480360381019061037c9190613aa9565b6117c4565b60405161038e9190613ef6565b60405180910390f35b6103b160048036038101906103ac9190613f11565b611800565b6040516103be9190613edb565b60405180910390f35b3480156103d357600080fd5b506103ee60048036038101906103e991906139be565b611a4f565b005b3480156103fc57600080fd5b50610405611c1d565b005b34801561041357600080fd5b5061042e60048036038101906104299190613f5a565b611d14565b60405161043b9190613edb565b60405180910390f35b34801561045057600080fd5b5061046b60048036038101906104669190613f9a565b611d45565b6040516104789190613edb565b60405180910390f35b34801561048d57600080fd5b506104a860048036038101906104a39190613aa9565b611d91565b6040516104b59190613ef6565b60405180910390f35b3480156104ca57600080fd5b506104e560048036038101906104e09190613f9a565b611dc0565b6040516104f29190614085565b60405180910390f35b34801561050757600080fd5b50610522600480360381019061051d9190613bf0565b611e57565b6040516105339594939291906140a7565b60405180910390f35b34801561054857600080fd5b50610563600480360381019061055e9190613bf0565b611fbd565b60405161057596959493929190614108565b60405180910390f35b34801561058a57600080fd5b506105936122a1565b6040516105a0919061418c565b60405180910390f35b3480156105b557600080fd5b506105d060048036038101906105cb91906141a7565b6122c5565b005b3480156105de57600080fd5b506105f960048036038101906105f49190613f5a565b6123d4565b6040516106069190613edb565b60405180910390f35b34801561061b57600080fd5b5061063660048036038101906106319190614203565b612405565b005b34801561064457600080fd5b5061065f600480360381019061065a9190613bf0565b6125b3565b60405161067196959493929190613cd5565b60405180910390f35b34801561068657600080fd5b506106a1600480360381019061069c91906142da565b61272c565b005b3480156106af57600080fd5b506106ca60048036038101906106c59190613bf0565b612964565b6040516106d993929190614381565b60405180910390f35b3480156106ee57600080fd5b5061070960048036038101906107049190613aa9565b612ab3565b60405161071b96959493929190614108565b60405180910390f35b34801561073057600080fd5b5061074b60048036038101906107469190613bf0565b612dd4565b60405161075d96959493929190614108565b60405180910390f35b34801561077257600080fd5b5061078d60048036038101906107889190613f9a565b6130e0565b60405161079a9190614085565b60405180910390f35b6107bd60048036038101906107b89190613bf0565b613177565b005b3480156107cb57600080fd5b506107d4613282565b6040516107e19190613edb565b60405180910390f35b3480156107f657600080fd5b50610811600480360381019061080c9190613bf0565b6132cc565b60405161082093929190614381565b60405180910390f35b6000600560008481526020019081526020016000206000015403610882576040517f08c379a000000000000000000000000000000000000000000000000000000000815260040161087990614412565b60405180910390fd5b3373ffffffffffffffffffffffffffffffffffffffff166005600084815260200190815260200160002060010160009054906101000a900473ffffffffffffffffffffffffffffffffffffffff1673ffffffffffffffffffffffffffffffffffffffff1614610926576040517f08c379a000000000000000000000000000000000000000000000000000000000815260040161091d906144a4565b60405180910390fd5b6005600083815260200190815260200160002060050160009054906101000a900460ff161561098a576040517f08c379a000000000000000000000000000000000000000000000000000000000815260040161098190614510565b60405180910390fd5b60005b8151811015610a34576007600084815260200190815260200160002060008383815181106109be576109bd614530565b5b6020026020010151815260200190815260200160002060009054906101000a900460ff16610a21576040517f08c379a0000000000000000000000000000000000000000000000000000000008152600401610a18906145ab565b60405180910390fd5b8080610a2c906145fa565b91505061098d565b5060016005600084815260200190815260200160002060050160006101000a81548160ff0219169083151502179055506000662386f26fc10000905080471015610ab3576040517f08c379a0000000000000000000000000000000000000000000000000000000008152600401610aaa906146b4565b60405180910390fd5b3373ffffffffffffffffffffffffffffffffffffffff166108fc829081150290604051600060405180830381858888f19350505050158015610af9573d6000803e3d6000fd5b503373ffffffffffffffffffffffffffffffffffffffff167f723ea42d9137790f7a513a388913b617aca0fc4676175cbdd9747028a62974b484604051610b409190613edb565b60405180910390a23373ffffffffffffffffffffffffffffffffffffffff167f6177f4110771217c72937d51f3a73915f2c714a6b98507e17eea7a186136a24a82604051610b8e9190613edb565b60405180910390a2505050565b60008054906101000a900473ffffffffffffffffffffffffffffffffffffffff1673ffffffffffffffffffffffffffffffffffffffff163373ffffffffffffffffffffffffffffffffffffffff1614610c29576040517f08c379a0000000000000000000000000000000000000000000000000000000008152600401610c2090614746565b60405180910390fd5b60008542604051602001610c3e9291906147cf565b6040516020818303038152906040528051906020012060001c90506000600360008381526020019081526020016000209050818160000181905550868160010160006101000a81548173ffffffffffffffffffffffffffffffffffffffff021916908373ffffffffffffffffffffffffffffffffffffffff16021790555085816002019081610ccd9190614a07565b5084816003019080519060200190610ce6929190613406565b5083816004019080519060200190610cff929190613406565b5082816005019081610d119190614a07565b50428160060181905550600460008873ffffffffffffffffffffffffffffffffffffffff1673ffffffffffffffffffffffffffffffffffffffff1681526020019081526020016000208290806001815401808255809150506001900390600052602060002001600090919091909150558673ffffffffffffffffffffffffffffffffffffffff167f9158c4b8b7fff567a0a975ca3187331e08a50d8f2a1f04e986ac1e6e86e8212c83604051610dc79190613edb565b60405180910390a250505050505050565b6000600360008781526020019081526020016000206000015403610e31576040517f08c379a0000000000000000000000000000000000000000000000000000000008152600401610e2890614b25565b60405180910390fd5b3373ffffffffffffffffffffffffffffffffffffffff166003600087815260200190815260200160002060010160009054906101000a900473ffffffffffffffffffffffffffffffffffffffff1673ffffffffffffffffffffffffffffffffffffffff1614610ed5576040517f08c379a0000000000000000000000000000000000000000000000000000000008152600401610ecc90614bb7565b60405180910390fd5b600060036000878152602001908152602001600020905084816002019081610efd9190614a07565b5083816003019080519060200190610f16929190613406565b5082816004019080519060200190610f2f929190613406565b5081816005019081610f419190614a07565b503373ffffffffffffffffffffffffffffffffffffffff167f9b8f2dd4f0b06f4b26a2a8b6724772b72e9c37b926cab4d38ae0ff36f9faadf287604051610f889190613edb565b60405180910390a2505050505050565b6000600560008481526020019081526020016000206000015403610ff1576040517f08c379a0000000000000000000000000000000000000000000000000000000008152600401610fe890614412565b60405180910390fd5b3373ffffffffffffffffffffffffffffffffffffffff166005600084815260200190815260200160002060010160009054906101000a900473ffffffffffffffffffffffffffffffffffffffff1673ffffffffffffffffffffffffffffffffffffffff1614611095576040517f08c379a000000000000000000000000000000000000000000000000000000000815260040161108c90614c49565b60405180910390fd5b600160076000848152602001908152602001600020600083815260200190815260200160002060006101000a81548160ff0219169083151502179055503373ffffffffffffffffffffffffffffffffffffffff167f2e474df95c1ae8e317b7afe8654773678f2979b837c379eade847a2164dee2bf838360405161111a929190614c69565b60405180910390a25050565b60008054906101000a900473ffffffffffffffffffffffffffffffffffffffff1673ffffffffffffffffffffffffffffffffffffffff163373ffffffffffffffffffffffffffffffffffffffff16146111b4576040517f08c379a00000000000000000000000000000000000000000000000000000000081526004016111ab90614746565b60405180910390fd5b60008585426040516020016111cb93929190614cce565b6040516020818303038152906040528051906020012060001c90506040518060c0016040528082815260200187815260200186815260200185815260200184815260200183815250600160008381526020019081526020016000206000820151816000015560208201518160010190816112459190614a07565b50604082015181600201908161125b9190614a07565b5060608201518160030190816112719190614a07565b5060808201518160040190816112879190614a07565b5060a082015181600501908161129d9190614a07565b509050507fdd80b44c858b1da56e0c7431f8556fce71b1ca755eeff5ab0649acca26c230418187878787876040516112da96959493929190614108565b60405180910390a1505050505050565b600080606080600080600060056000898152602001908152602001600020905080600001548160010160009054906101000a900473ffffffffffffffffffffffffffffffffffffffff16826002018360030184600401548560050160009054906101000a900460ff1683805461135f9061482a565b80601f016020809104026020016040519081016040528092919081815260200182805461138b9061482a565b80156113d85780601f106113ad576101008083540402835291602001916113d8565b820191906000526020600020905b8154815290600101906020018083116113bb57829003601f168201915b505050505093508280546113eb9061482a565b80601f01602080910402602001604051908101604052809291908181526020018280546114179061482a565b80156114645780601f1061143957610100808354040283529160200191611464565b820191906000526020600020905b81548152906001019060200180831161144757829003601f168201915b505050505092509650965096509650965096505091939550919395565b600080606080606080600080600360008a8152602001908152602001600020905080600001548160010160009054906101000a900473ffffffffffffffffffffffffffffffffffffffff1682600301836004018460020185600501866006015484805480602002602001604051908101604052809291908181526020016000905b828210156115ae5783829060005260206000200180546115219061482a565b80601f016020809104026020016040519081016040528092919081815260200182805461154d9061482a565b801561159a5780601f1061156f5761010080835404028352916020019161159a565b820191906000526020600020905b81548152906001019060200180831161157d57829003601f168201915b505050505081526020019060010190611502565b50505050945083805480602002602001604051908101604052809291908181526020016000905b828210156116815783829060005260206000200180546115f49061482a565b80601f01602080910402602001604051908101604052809291908181526020018280546116209061482a565b801561166d5780601f106116425761010080835404028352916020019161166d565b820191906000526020600020905b81548152906001019060200180831161165057829003601f168201915b5050505050815260200190600101906115d5565b5050505093508280546116939061482a565b80601f01602080910402602001604051908101604052809291908181526020018280546116bf9061482a565b801561170c5780601f106116e15761010080835404028352916020019161170c565b820191906000526020600020905b8154815290600101906020018083116116ef57829003601f168201915b5050505050925081805461171f9061482a565b80601f016020809104026020016040519081016040528092919081815260200182805461174b9061482a565b80156117985780601f1061176d57610100808354040283529160200191611798565b820191906000526020600020905b81548152906001019060200180831161177b57829003601f168201915b50505050509150975097509750975097509750975050919395979092949650565b662386f26fc1000081565b600060076000848152602001908152602001600020600083815260200190815260200160002060009054906101000a900460ff16905092915050565b6000662386f26fc1000034101561184c576040517f08c379a000000000000000000000000000000000000000000000000000000000815260040161184390614d75565b60405180910390fd5b600033834260405160200161186393929190614d95565b6040516020818303038152906040528051906020012060001c90506040518060c001604052808281526020013373ffffffffffffffffffffffffffffffffffffffff16815260200184815260200160405180602001604052806000815250815260200142815260200160001515815250600560008381526020019081526020016000206000820151816000015560208201518160010160006101000a81548173ffffffffffffffffffffffffffffffffffffffff021916908373ffffffffffffffffffffffffffffffffffffffff160217905550604082015181600201908161194c9190614a07565b5060608201518160030190816119629190614a07565b506080820151816004015560a08201518160050160006101000a81548160ff021916908315150217905550905050600660003373ffffffffffffffffffffffffffffffffffffffff1673ffffffffffffffffffffffffffffffffffffffff1681526020019081526020016000208190806001815401808255809150506001900390600052602060002001600090919091909150553373ffffffffffffffffffffffffffffffffffffffff167ff7f80f9a6b3a7339f7b7ef8003834fcaaa597afc805263087e4f3d648b645e1b8285604051611a3e929190614dce565b60405180910390a280915050919050565b60008054906101000a900473ffffffffffffffffffffffffffffffffffffffff1673ffffffffffffffffffffffffffffffffffffffff163373ffffffffffffffffffffffffffffffffffffffff1614611add576040517f08c379a0000000000000000000000000000000000000000000000000000000008152600401611ad490614746565b60405180910390fd5b6000600360008781526020019081526020016000206000015403611b36576040517f08c379a0000000000000000000000000000000000000000000000000000000008152600401611b2d90614b25565b60405180910390fd5b600060036000878152602001908152602001600020905084816002019081611b5e9190614a07565b5083816003019080519060200190611b77929190613406565b5082816004019080519060200190611b90929190613406565b5081816005019081611ba29190614a07565b508060010160009054906101000a900473ffffffffffffffffffffffffffffffffffffffff1673ffffffffffffffffffffffffffffffffffffffff167f9b8f2dd4f0b06f4b26a2a8b6724772b72e9c37b926cab4d38ae0ff36f9faadf287604051611c0d9190613edb565b60405180910390a2505050505050565b60008054906101000a900473ffffffffffffffffffffffffffffffffffffffff1673ffffffffffffffffffffffffffffffffffffffff163373ffffffffffffffffffffffffffffffffffffffff1614611cab576040517f08c379a0000000000000000000000000000000000000000000000000000000008152600401611ca290614746565b60405180910390fd5b60008054906101000a900473ffffffffffffffffffffffffffffffffffffffff1673ffffffffffffffffffffffffffffffffffffffff166108fc479081150290604051600060405180830381858888f19350505050158015611d11573d6000803e3d6000fd5b50565b60046020528160005260406000208181548110611d3057600080fd5b90600052602060002001600091509150505481565b6000600460008373ffffffffffffffffffffffffffffffffffffffff1673ffffffffffffffffffffffffffffffffffffffff168152602001908152602001600020805490509050919050565b60076020528160005260406000206020528060005260406000206000915091509054906101000a900460ff1681565b6060600660008373ffffffffffffffffffffffffffffffffffffffff1673ffffffffffffffffffffffffffffffffffffffff168152602001908152602001600020805480602002602001604051908101604052809291908181526020018280548015611e4b57602002820191906000526020600020905b815481526020019060010190808311611e37575b50505050509050919050565b60036020528060005260406000206000915090508060000154908060010160009054906101000a900473ffffffffffffffffffffffffffffffffffffffff1690806002018054611ea69061482a565b80601f0160208091040260200160405190810160405280929190818152602001828054611ed29061482a565b8015611f1f5780601f10611ef457610100808354040283529160200191611f1f565b820191906000526020600020905b815481529060010190602001808311611f0257829003601f168201915b505050505090806005018054611f349061482a565b80601f0160208091040260200160405190810160405280929190818152602001828054611f609061482a565b8015611fad5780601f10611f8257610100808354040283529160200191611fad565b820191906000526020600020905b815481529060010190602001808311611f9057829003601f168201915b5050505050908060060154905085565b6001602052806000526040600020600091509050806000015490806001018054611fe69061482a565b80601f01602080910402602001604051908101604052809291908181526020018280546120129061482a565b801561205f5780601f106120345761010080835404028352916020019161205f565b820191906000526020600020905b81548152906001019060200180831161204257829003601f168201915b5050505050908060020180546120749061482a565b80601f01602080910402602001604051908101604052809291908181526020018280546120a09061482a565b80156120ed5780601f106120c2576101008083540402835291602001916120ed565b820191906000526020600020905b8154815290600101906020018083116120d057829003601f168201915b5050505050908060030180546121029061482a565b80601f016020809104026020016040519081016040528092919081815260200182805461212e9061482a565b801561217b5780601f106121505761010080835404028352916020019161217b565b820191906000526020600020905b81548152906001019060200180831161215e57829003601f168201915b5050505050908060040180546121909061482a565b80601f01602080910402602001604051908101604052809291908181526020018280546121bc9061482a565b80156122095780601f106121de57610100808354040283529160200191612209565b820191906000526020600020905b8154815290600101906020018083116121ec57829003601f168201915b50505050509080600501805461221e9061482a565b80601f016020809104026020016040519081016040528092919081815260200182805461224a9061482a565b80156122975780601f1061226c57610100808354040283529160200191612297565b820191906000526020600020905b81548152906001019060200180831161227a57829003601f168201915b5050505050905086565b60008054906101000a900473ffffffffffffffffffffffffffffffffffffffff1681565b60008054906101000a900473ffffffffffffffffffffffffffffffffffffffff1673ffffffffffffffffffffffffffffffffffffffff163373ffffffffffffffffffffffffffffffffffffffff1614612353576040517f08c379a000000000000000000000000000000000000000000000000000000000815260040161234a90614746565b60405180910390fd5b60006005600084815260200190815260200160002060000154036123ac576040517f08c379a00000000000000000000000000000000000000000000000000000000081526004016123a390614e4a565b60405180910390fd5b806005600084815260200190815260200160002060030190816123cf9190614a07565b505050565b600660205281600052604060002081815481106123f057600080fd5b90600052602060002001600091509150505481565b6000334260405160200161241a9291906147cf565b6040516020818303038152906040528051906020012060001c90506000600360008381526020019081526020016000209050818160000181905550338160010160006101000a81548173ffffffffffffffffffffffffffffffffffffffff021916908373ffffffffffffffffffffffffffffffffffffffff160217905550858160020190816124a99190614a07565b50848160030190805190602001906124c2929190613406565b50838160040190805190602001906124db929190613406565b50828160050190816124ed9190614a07565b50428160060181905550600460003373ffffffffffffffffffffffffffffffffffffffff1673ffffffffffffffffffffffffffffffffffffffff1681526020019081526020016000208290806001815401808255809150506001900390600052602060002001600090919091909150553373ffffffffffffffffffffffffffffffffffffffff167f9158c4b8b7fff567a0a975ca3187331e08a50d8f2a1f04e986ac1e6e86e8212c836040516125a39190613edb565b60405180910390a2505050505050565b60056020528060005260406000206000915090508060000154908060010160009054906101000a900473ffffffffffffffffffffffffffffffffffffffff16908060020180546126029061482a565b80601f016020809104026020016040519081016040528092919081815260200182805461262e9061482a565b801561267b5780601f106126505761010080835404028352916020019161267b565b820191906000526020600020905b81548152906001019060200180831161265e57829003601f168201915b5050505050908060030180546126909061482a565b80601f01602080910402602001604051908101604052809291908181526020018280546126bc9061482a565b80156127095780601f106126de57610100808354040283529160200191612709565b820191906000526020600020905b8154815290600101906020018083116126ec57829003601f168201915b5050505050908060040154908060050160009054906101000a900460ff16905086565b60008054906101000a900473ffffffffffffffffffffffffffffffffffffffff1673ffffffffffffffffffffffffffffffffffffffff163373ffffffffffffffffffffffffffffffffffffffff16146127ba576040517f08c379a00000000000000000000000000000000000000000000000000000000081526004016127b190614746565b60405180910390fd5b60008383426040516020016127d193929190614cce565b6040516020818303038152906040528051906020012060001c905060006002600083815260200190815260200160002090508181600001819055508481600101908161281d9190614a07565b508381600201908161282f9190614a07565b5060005b8351811015612921576001600085838151811061285357612852614530565b5b6020026020010151815260200190815260200160002082600301600086848151811061288257612881614530565b5b6020026020010151815260200190815260200160002060008201548160000155600182018160010190816128b69190614e80565b50600282018160020190816128cb9190614e80565b50600382018160030190816128e09190614e80565b50600482018160040190816128f59190614e80565b506005820181600501908161290a9190614e80565b509050508080612919906145fa565b915050612833565b507fb4c05240c9123bc1e0c4f8d3f24c7576a172360a19d1f98b4a97cd375842263182868660405161295593929190614381565b60405180910390a15050505050565b60006060806000600260008681526020019081526020016000209050806000015481600101826002018180546129999061482a565b80601f01602080910402602001604051908101604052809291908181526020018280546129c59061482a565b8015612a125780601f106129e757610100808354040283529160200191612a12565b820191906000526020600020905b8154815290600101906020018083116129f557829003601f168201915b50505050509150808054612a259061482a565b80601f0160208091040260200160405190810160405280929190818152602001828054612a519061482a565b8015612a9e5780601f10612a7357610100808354040283529160200191612a9e565b820191906000526020600020905b815481529060010190602001808311612a8157829003601f168201915b50505050509050935093509350509193909250565b600060608060608060606000600260008a81526020019081526020016000206003016000898152602001908152602001600020905080600001548160010182600201836003018460040185600501848054612b0d9061482a565b80601f0160208091040260200160405190810160405280929190818152602001828054612b399061482a565b8015612b865780601f10612b5b57610100808354040283529160200191612b86565b820191906000526020600020905b815481529060010190602001808311612b6957829003601f168201915b50505050509450838054612b999061482a565b80601f0160208091040260200160405190810160405280929190818152602001828054612bc59061482a565b8015612c125780601f10612be757610100808354040283529160200191612c12565b820191906000526020600020905b815481529060010190602001808311612bf557829003601f168201915b50505050509350828054612c259061482a565b80601f0160208091040260200160405190810160405280929190818152602001828054612c519061482a565b8015612c9e5780601f10612c7357610100808354040283529160200191612c9e565b820191906000526020600020905b815481529060010190602001808311612c8157829003601f168201915b50505050509250818054612cb19061482a565b80601f0160208091040260200160405190810160405280929190818152602001828054612cdd9061482a565b8015612d2a5780601f10612cff57610100808354040283529160200191612d2a565b820191906000526020600020905b815481529060010190602001808311612d0d57829003601f168201915b50505050509150808054612d3d9061482a565b80601f0160208091040260200160405190810160405280929190818152602001828054612d699061482a565b8015612db65780601f10612d8b57610100808354040283529160200191612db6565b820191906000526020600020905b815481529060010190602001808311612d9957829003601f168201915b50505050509050965096509650965096509650509295509295509295565b60006060806060806060600060016000898152602001908152602001600020905080600001548160010182600201836003018460040185600501848054612e1a9061482a565b80601f0160208091040260200160405190810160405280929190818152602001828054612e469061482a565b8015612e935780601f10612e6857610100808354040283529160200191612e93565b820191906000526020600020905b815481529060010190602001808311612e7657829003601f168201915b50505050509450838054612ea69061482a565b80601f0160208091040260200160405190810160405280929190818152602001828054612ed29061482a565b8015612f1f5780601f10612ef457610100808354040283529160200191612f1f565b820191906000526020600020905b815481529060010190602001808311612f0257829003601f168201915b50505050509350828054612f329061482a565b80601f0160208091040260200160405190810160405280929190818152602001828054612f5e9061482a565b8015612fab5780601f10612f8057610100808354040283529160200191612fab565b820191906000526020600020905b815481529060010190602001808311612f8e57829003601f168201915b50505050509250818054612fbe9061482a565b80601f0160208091040260200160405190810160405280929190818152602001828054612fea9061482a565b80156130375780601f1061300c57610100808354040283529160200191613037565b820191906000526020600020905b81548152906001019060200180831161301a57829003601f168201915b5050505050915080805461304a9061482a565b80601f01602080910402602001604051908101604052809291908181526020018280546130769061482a565b80156130c35780601f10613098576101008083540402835291602001916130c3565b820191906000526020600020905b8154815290600101906020018083116130a657829003601f168201915b505050505090509650965096509650965096505091939550919395565b6060600460008373ffffffffffffffffffffffffffffffffffffffff1673ffffffffffffffffffffffffffffffffffffffff16815260200190815260200160002080548060200260200160405190810160405280929190818152602001828054801561316b57602002820191906000526020600020905b815481526020019060010190808311613157575b50505050509050919050565b662386f26fc100003410156131c1576040517f08c379a00000000000000000000000000000000000000000000000000000000081526004016131b890614fb4565b60405180910390fd5b600060026000838152602001908152602001600020600001540361321a576040517f08c379a000000000000000000000000000000000000000000000000000000000815260040161321190614412565b60405180910390fd5b7ffb33bc41b91b9a701b4d0981ddc8499a6afe3b03439ac8bb59fb01ee066b238581600260008481526020019081526020016000206001016002600085815260200190815260200160002060020160405161327793929190615058565b60405180910390a150565b6000600460003373ffffffffffffffffffffffffffffffffffffffff1673ffffffffffffffffffffffffffffffffffffffff16815260200190815260200160002080549050905090565b60026020528060005260406000206000915090508060000154908060010180546132f59061482a565b80601f01602080910402602001604051908101604052809291908181526020018280546133219061482a565b801561336e5780601f106133435761010080835404028352916020019161336e565b820191906000526020600020905b81548152906001019060200180831161335157829003601f168201915b5050505050908060020180546133839061482a565b80601f01602080910402602001604051908101604052809291908181526020018280546133af9061482a565b80156133fc5780601f106133d1576101008083540402835291602001916133fc565b820191906000526020600020905b8154815290600101906020018083116133df57829003601f168201915b5050505050905083565b82805482825590600052602060002090810192821561344e579160200282015b8281111561344d57825182908161343d9190614a07565b5091602001919060010190613426565b5b50905061345b919061345f565b5090565b5b8082111561347f57600081816134769190613483565b50600101613460565b5090565b50805461348f9061482a565b6000825580601f106134a157506134c0565b601f0160209004906000526020600020908101906134bf91906134c3565b5b50565b5b808211156134dc5760008160009055506001016134c4565b5090565b6000604051905090565b600080fd5b600080fd5b6000819050919050565b613507816134f4565b811461351257600080fd5b50565b600081359050613524816134fe565b92915050565b600080fd5b6000601f19601f8301169050919050565b7f4e487b7100000000000000000000000000000000000000000000000000000000600052604160045260246000fd5b6135788261352f565b810181811067ffffffffffffffff8211171561359757613596613540565b5b80604052505050565b60006135aa6134e0565b90506135b6828261356f565b919050565b600067ffffffffffffffff8211156135d6576135d5613540565b5b602082029050602081019050919050565b600080fd5b60006135ff6135fa846135bb565b6135a0565b90508083825260208201905060208402830185811115613622576136216135e7565b5b835b8181101561364b57806136378882613515565b845260208401935050602081019050613624565b5050509392505050565b600082601f83011261366a5761366961352a565b5b813561367a8482602086016135ec565b91505092915050565b6000806040838503121561369a576136996134ea565b5b60006136a885828601613515565b925050602083013567ffffffffffffffff8111156136c9576136c86134ef565b5b6136d585828601613655565b9150509250929050565b600073ffffffffffffffffffffffffffffffffffffffff82169050919050565b600061370a826136df565b9050919050565b61371a816136ff565b811461372557600080fd5b50565b60008135905061373781613711565b92915050565b600080fd5b600067ffffffffffffffff82111561375d5761375c613540565b5b6137668261352f565b9050602081019050919050565b82818337600083830152505050565b600061379561379084613742565b6135a0565b9050828152602081018484840111156137b1576137b061373d565b5b6137bc848285613773565b509392505050565b600082601f8301126137d9576137d861352a565b5b81356137e9848260208601613782565b91505092915050565b600067ffffffffffffffff82111561380d5761380c613540565b5b602082029050602081019050919050565b600061383161382c846137f2565b6135a0565b90508083825260208201905060208402830185811115613854576138536135e7565b5b835b8181101561389b57803567ffffffffffffffff8111156138795761387861352a565b5b80860161388689826137c4565b85526020850194505050602081019050613856565b5050509392505050565b600082601f8301126138ba576138b961352a565b5b81356138ca84826020860161381e565b91505092915050565b600080600080600060a086880312156138ef576138ee6134ea565b5b60006138fd88828901613728565b955050602086013567ffffffffffffffff81111561391e5761391d6134ef565b5b61392a888289016137c4565b945050604086013567ffffffffffffffff81111561394b5761394a6134ef565b5b613957888289016138a5565b935050606086013567ffffffffffffffff811115613978576139776134ef565b5b613984888289016138a5565b925050608086013567ffffffffffffffff8111156139a5576139a46134ef565b5b6139b1888289016137c4565b9150509295509295909350565b600080600080600060a086880312156139da576139d96134ea565b5b60006139e888828901613515565b955050602086013567ffffffffffffffff811115613a0957613a086134ef565b5b613a15888289016137c4565b945050604086013567ffffffffffffffff811115613a3657613a356134ef565b5b613a42888289016138a5565b935050606086013567ffffffffffffffff811115613a6357613a626134ef565b5b613a6f888289016138a5565b925050608086013567ffffffffffffffff811115613a9057613a8f6134ef565b5b613a9c888289016137c4565b9150509295509295909350565b60008060408385031215613ac057613abf6134ea565b5b6000613ace85828601613515565b9250506020613adf85828601613515565b9150509250929050565b600080600080600060a08688031215613b0557613b046134ea565b5b600086013567ffffffffffffffff811115613b2357613b226134ef565b5b613b2f888289016137c4565b955050602086013567ffffffffffffffff811115613b5057613b4f6134ef565b5b613b5c888289016137c4565b945050604086013567ffffffffffffffff811115613b7d57613b7c6134ef565b5b613b89888289016137c4565b935050606086013567ffffffffffffffff811115613baa57613ba96134ef565b5b613bb6888289016137c4565b925050608086013567ffffffffffffffff811115613bd757613bd66134ef565b5b613be3888289016137c4565b9150509295509295909350565b600060208284031215613c0657613c056134ea565b5b6000613c1484828501613515565b91505092915050565b613c26816134f4565b82525050565b613c35816136ff565b82525050565b600081519050919050565b600082825260208201905092915050565b60005b83811015613c75578082015181840152602081019050613c5a565b60008484015250505050565b6000613c8c82613c3b565b613c968185613c46565b9350613ca6818560208601613c57565b613caf8161352f565b840191505092915050565b60008115159050919050565b613ccf81613cba565b82525050565b600060c082019050613cea6000830189613c1d565b613cf76020830188613c2c565b8181036040830152613d098187613c81565b90508181036060830152613d1d8186613c81565b9050613d2c6080830185613c1d565b613d3960a0830184613cc6565b979650505050505050565b600081519050919050565b600082825260208201905092915050565b6000819050602082019050919050565b600082825260208201905092915050565b6000613d8c82613c3b565b613d968185613d70565b9350613da6818560208601613c57565b613daf8161352f565b840191505092915050565b6000613dc68383613d81565b905092915050565b6000602082019050919050565b6000613de682613d44565b613df08185613d4f565b935083602082028501613e0285613d60565b8060005b85811015613e3e5784840389528151613e1f8582613dba565b9450613e2a83613dce565b925060208a01995050600181019050613e06565b50829750879550505050505092915050565b600060e082019050613e65600083018a613c1d565b613e726020830189613c2c565b8181036040830152613e848188613ddb565b90508181036060830152613e988187613ddb565b90508181036080830152613eac8186613c81565b905081810360a0830152613ec08185613c81565b9050613ecf60c0830184613c1d565b98975050505050505050565b6000602082019050613ef06000830184613c1d565b92915050565b6000602082019050613f0b6000830184613cc6565b92915050565b600060208284031215613f2757613f266134ea565b5b600082013567ffffffffffffffff811115613f4557613f446134ef565b5b613f51848285016137c4565b91505092915050565b60008060408385031215613f7157613f706134ea565b5b6000613f7f85828601613728565b9250506020613f9085828601613515565b9150509250929050565b600060208284031215613fb057613faf6134ea565b5b6000613fbe84828501613728565b91505092915050565b600081519050919050565b600082825260208201905092915050565b6000819050602082019050919050565b613ffc816134f4565b82525050565b600061400e8383613ff3565b60208301905092915050565b6000602082019050919050565b600061403282613fc7565b61403c8185613fd2565b935061404783613fe3565b8060005b8381101561407857815161405f8882614002565b975061406a8361401a565b92505060018101905061404b565b5085935050505092915050565b6000602082019050818103600083015261409f8184614027565b905092915050565b600060a0820190506140bc6000830188613c1d565b6140c96020830187613c2c565b81810360408301526140db8186613c81565b905081810360608301526140ef8185613c81565b90506140fe6080830184613c1d565b9695505050505050565b600060c08201905061411d6000830189613c1d565b818103602083015261412f8188613c81565b905081810360408301526141438187613c81565b905081810360608301526141578186613c81565b9050818103608083015261416b8185613c81565b905081810360a083015261417f8184613c81565b9050979650505050505050565b60006020820190506141a16000830184613c2c565b92915050565b600080604083850312156141be576141bd6134ea565b5b60006141cc85828601613515565b925050602083013567ffffffffffffffff8111156141ed576141ec6134ef565b5b6141f9858286016137c4565b9150509250929050565b6000806000806080858703121561421d5761421c6134ea565b5b600085013567ffffffffffffffff81111561423b5761423a6134ef565b5b614247878288016137c4565b945050602085013567ffffffffffffffff811115614268576142676134ef565b5b614274878288016138a5565b935050604085013567ffffffffffffffff811115614295576142946134ef565b5b6142a1878288016138a5565b925050606085013567ffffffffffffffff8111156142c2576142c16134ef565b5b6142ce878288016137c4565b91505092959194509250565b6000806000606084860312156142f3576142f26134ea565b5b600084013567ffffffffffffffff811115614311576143106134ef565b5b61431d868287016137c4565b935050602084013567ffffffffffffffff81111561433e5761433d6134ef565b5b61434a868287016137c4565b925050604084013567ffffffffffffffff81111561436b5761436a6134ef565b5b61437786828701613655565b9150509250925092565b60006060820190506143966000830186613c1d565b81810360208301526143a88185613c81565b905081810360408301526143bc8184613c81565b9050949350505050565b7f5061746820646f6573206e6f7420657869737400000000000000000000000000600082015250565b60006143fc601383613c46565b9150614407826143c6565b602082019050919050565b6000602082019050818103600083015261442b816143ef565b9050919050565b7f4f6e6c792074686520706174682063726561746f722063616e20636f6d706c6560008201527f7465207468652070617468000000000000000000000000000000000000000000602082015250565b600061448e602b83613c46565b915061449982614432565b604082019050919050565b600060208201905081810360008301526144bd81614481565b9050919050565b7f5061746820616c726561647920636f6d706c6574656400000000000000000000600082015250565b60006144fa601683613c46565b9150614505826144c4565b602082019050919050565b60006020820190508181036000830152614529816144ed565b9050919050565b7f4e487b7100000000000000000000000000000000000000000000000000000000600052603260045260246000fd5b7f4e6f7420616c6c207461736b732061726520636f6d706c657465640000000000600082015250565b6000614595601b83613c46565b91506145a08261455f565b602082019050919050565b600060208201905081810360008301526145c481614588565b9050919050565b7f4e487b7100000000000000000000000000000000000000000000000000000000600052601160045260246000fd5b6000614605826134f4565b91507fffffffffffffffffffffffffffffffffffffffffffffffffffffffffffffffff8203614637576146366145cb565b5b600182019050919050565b7f436f6e747261637420646f6573206e6f74206861766520656e6f75676820626160008201527f6c616e636520666f722072657761726400000000000000000000000000000000602082015250565b600061469e603083613c46565b91506146a982614642565b604082019050919050565b600060208201905081810360008301526146cd81614691565b9050919050565b7f4f6e6c7920746865206f776e65722063616e2063616c6c20746869732066756e60008201527f6374696f6e000000000000000000000000000000000000000000000000000000602082015250565b6000614730602583613c46565b915061473b826146d4565b604082019050919050565b6000602082019050818103600083015261475f81614723565b9050919050565b60008160601b9050919050565b600061477e82614766565b9050919050565b600061479082614773565b9050919050565b6147a86147a3826136ff565b614785565b82525050565b6000819050919050565b6147c96147c4826134f4565b6147ae565b82525050565b60006147db8285614797565b6014820191506147eb82846147b8565b6020820191508190509392505050565b7f4e487b7100000000000000000000000000000000000000000000000000000000600052602260045260246000fd5b6000600282049050600182168061484257607f821691505b602082108103614855576148546147fb565b5b50919050565b60008190508160005260206000209050919050565b60006020601f8301049050919050565b600082821b905092915050565b6000600883026148bd7fffffffffffffffffffffffffffffffffffffffffffffffffffffffffffffffff82614880565b6148c78683614880565b95508019841693508086168417925050509392505050565b6000819050919050565b60006149046148ff6148fa846134f4565b6148df565b6134f4565b9050919050565b6000819050919050565b61491e836148e9565b61493261492a8261490b565b84845461488d565b825550505050565b600090565b61494761493a565b614952818484614915565b505050565b5b818110156149765761496b60008261493f565b600181019050614958565b5050565b601f8211156149bb5761498c8161485b565b61499584614870565b810160208510156149a4578190505b6149b86149b085614870565b830182614957565b50505b505050565b600082821c905092915050565b60006149de600019846008026149c0565b1980831691505092915050565b60006149f783836149cd565b9150826002028217905092915050565b614a1082613c3b565b67ffffffffffffffff811115614a2957614a28613540565b5b614a33825461482a565b614a3e82828561497a565b600060209050601f831160018114614a715760008415614a5f578287015190505b614a6985826149eb565b865550614ad1565b601f198416614a7f8661485b565b60005b82811015614aa757848901518255600182019150602085019450602081019050614a82565b86831015614ac45784890151614ac0601f8916826149cd565b8355505b6001600288020188555050505b505050505050565b7f53757276657920646f6573206e6f742065786973740000000000000000000000600082015250565b6000614b0f601583613c46565b9150614b1a82614ad9565b602082019050919050565b60006020820190508181036000830152614b3e81614b02565b9050919050565b7f4e6f7420617574686f72697a656420746f20757064617465207468697320737560008201527f7276657900000000000000000000000000000000000000000000000000000000602082015250565b6000614ba1602483613c46565b9150614bac82614b45565b604082019050919050565b60006020820190508181036000830152614bd081614b94565b9050919050565b7f4f6e6c792074686520706174682063726561746f722063616e20636f6d706c6560008201527f7465207461736b73000000000000000000000000000000000000000000000000602082015250565b6000614c33602883613c46565b9150614c3e82614bd7565b604082019050919050565b60006020820190508181036000830152614c6281614c26565b9050919050565b6000604082019050614c7e6000830185613c1d565b614c8b6020830184613c1d565b9392505050565b600081905092915050565b6000614ca882613c3b565b614cb28185614c92565b9350614cc2818560208601613c57565b80840191505092915050565b6000614cda8286614c9d565b9150614ce68285614c9d565b9150614cf282846147b8565b602082019150819050949350505050565b7f496e73756666696369656e74207061796d656e742e2054686520636f7374206960008201527f7320302e3031204554482e000000000000000000000000000000000000000000602082015250565b6000614d5f602b83613c46565b9150614d6a82614d03565b604082019050919050565b60006020820190508181036000830152614d8e81614d52565b9050919050565b6000614da18286614797565b601482019150614db18285614c9d565b9150614dbd82846147b8565b602082019150819050949350505050565b6000604082019050614de36000830185613c1d565b8181036020830152614df58184613c81565b90509392505050565b7f47656e657261746564207061746820646f6573206e6f74206578697374000000600082015250565b6000614e34601d83613c46565b9150614e3f82614dfe565b602082019050919050565b60006020820190508181036000830152614e6381614e27565b9050919050565b600081549050614e798161482a565b9050919050565b818103614e8e575050614f66565b614e9782614e6a565b67ffffffffffffffff811115614eb057614eaf613540565b5b614eba825461482a565b614ec582828561497a565b6000601f831160018114614ef45760008415614ee2578287015490505b614eec85826149eb565b865550614f5f565b601f198416614f028761485b565b9650614f0d8661485b565b60005b82811015614f3557848901548255600182019150600185019450602081019050614f10565b86831015614f525784890154614f4e601f8916826149cd565b8355505b6001600288020188555050505b5050505050505b565b7f596f75206d75737420706179206174206c6561737420302e3031206574686572600082015250565b6000614f9e602083613c46565b9150614fa982614f68565b602082019050919050565b60006020820190508181036000830152614fcd81614f91565b9050919050565b60008154614fe18161482a565b614feb8186613c46565b94506001821660008114615006576001811461501c5761504f565b60ff19831686528115156020028601935061504f565b6150258561485b565b60005b8381101561504757815481890152600182019150602081019050615028565b808801955050505b50505092915050565b600060608201905061506d6000830186613c1d565b818103602083015261507f8185614fd4565b905081810360408301526150938184614fd4565b905094935050505056fea2646970667358221220d9656f7e0bb6dd6e0741487e0d8a5db82107ebe596a4d6a876d9e65f8508ae1664736f6c63430008130033",
  "linkReferences": {},
  "deployedLinkReferences": {}
}